{
  "_format": "hh-sol-artifact-1",
  "contractName": "NFTStaker",
  "sourceName": "src/backend/contracts/NFTStaker.sol",
  "abi": [
    {
      "anonymous": false,
      "inputs": [
        {
          "indexed": true,
          "internalType": "address",
          "name": "previousOwner",
          "type": "address"
        },
        {
          "indexed": true,
          "internalType": "address",
          "name": "newOwner",
          "type": "address"
        }
      ],
      "name": "OwnershipTransferred",
      "type": "event"
    },
    {
      "anonymous": false,
      "inputs": [
        {
          "indexed": false,
          "internalType": "uint256",
          "name": "tokenId",
          "type": "uint256"
        },
        {
          "indexed": false,
          "internalType": "uint256",
          "name": "timestamp",
          "type": "uint256"
        }
      ],
      "name": "StakeSuccessful",
      "type": "event"
    },
    {
      "anonymous": false,
      "inputs": [
        {
          "indexed": false,
          "internalType": "uint256",
          "name": "tokenId",
          "type": "uint256"
        },
        {
          "indexed": false,
          "internalType": "bool",
          "name": "rewardClaimed",
          "type": "bool"
        }
      ],
      "name": "UnstakeSuccessful",
      "type": "event"
    },
    {
      "inputs": [
        {
          "internalType": "uint256",
          "name": "",
          "type": "uint256"
        }
      ],
      "name": "claimedNfts",
      "outputs": [
        {
          "internalType": "bool",
          "name": "",
          "type": "bool"
        }
      ],
      "stateMutability": "view",
      "type": "function"
    },
    {
      "inputs": [
        {
          "internalType": "address",
          "name": "_user",
          "type": "address"
        }
      ],
      "name": "getPlaceholderTokenIds",
      "outputs": [
        {
          "internalType": "uint256[]",
          "name": "tokenIds",
          "type": "uint256[]"
        }
      ],
      "stateMutability": "view",
      "type": "function"
    },
    {
      "inputs": [
        {
          "internalType": "address",
          "name": "_user",
          "type": "address"
        }
      ],
      "name": "getStakedTimestamps",
      "outputs": [
        {
          "internalType": "uint256[]",
          "name": "timestamps",
          "type": "uint256[]"
        }
      ],
      "stateMutability": "view",
      "type": "function"
    },
    {
      "inputs": [
        {
          "internalType": "address",
          "name": "_user",
          "type": "address"
        }
      ],
      "name": "getStakedTokens",
      "outputs": [
        {
          "internalType": "uint256[]",
          "name": "tokenIds",
          "type": "uint256[]"
        }
      ],
      "stateMutability": "view",
      "type": "function"
    },
    {
      "inputs": [],
      "name": "getStakerAddresses",
      "outputs": [
        {
          "internalType": "address[]",
          "name": "",
          "type": "address[]"
        }
      ],
      "stateMutability": "view",
      "type": "function"
    },
    {
      "inputs": [
        {
          "internalType": "uint256",
          "name": "_stakeMinimum",
          "type": "uint256"
        },
        {
          "internalType": "uint256",
          "name": "_stakeMaximum",
          "type": "uint256"
        },
        {
          "internalType": "uint256",
          "name": "_stakingPeriod",
          "type": "uint256"
        },
        {
          "internalType": "address",
          "name": "_ownerAddress",
          "type": "address"
        },
        {
          "internalType": "address[]",
          "name": "_stakedNfts",
          "type": "address[]"
        },
        {
          "internalType": "address",
          "name": "_placeholderNftAddress",
          "type": "address"
        },
        {
          "internalType": "address",
          "name": "_rewardNftAddress",
          "type": "address"
        }
      ],
      "name": "initialize",
      "outputs": [],
      "stateMutability": "nonpayable",
      "type": "function"
    },
    {
      "inputs": [
        {
          "internalType": "uint256",
          "name": "_tokenId",
          "type": "uint256"
        }
      ],
      "name": "isTokenStaked",
      "outputs": [
        {
          "internalType": "bool",
          "name": "",
          "type": "bool"
        }
      ],
      "stateMutability": "view",
      "type": "function"
    },
    {
      "inputs": [
        {
          "internalType": "address",
          "name": "",
          "type": "address"
        },
        {
          "internalType": "address",
          "name": "",
          "type": "address"
        },
        {
          "internalType": "uint256",
          "name": "",
          "type": "uint256"
        },
        {
          "internalType": "bytes",
          "name": "",
          "type": "bytes"
        }
      ],
      "name": "onERC721Received",
      "outputs": [
        {
          "internalType": "bytes4",
          "name": "",
          "type": "bytes4"
        }
      ],
      "stateMutability": "nonpayable",
      "type": "function"
    },
    {
      "inputs": [],
      "name": "owner",
      "outputs": [
        {
          "internalType": "address",
          "name": "",
          "type": "address"
        }
      ],
      "stateMutability": "view",
      "type": "function"
    },
    {
      "inputs": [],
      "name": "placeholderNft",
      "outputs": [
        {
          "internalType": "contract PlaceholderNFT",
          "name": "",
          "type": "address"
        }
      ],
      "stateMutability": "view",
      "type": "function"
    },
    {
      "inputs": [],
      "name": "renounceOwnership",
      "outputs": [],
      "stateMutability": "nonpayable",
      "type": "function"
    },
    {
      "inputs": [],
      "name": "rewardNft",
      "outputs": [
        {
          "internalType": "contract RewardNFT",
          "name": "",
          "type": "address"
        }
      ],
      "stateMutability": "view",
      "type": "function"
    },
    {
      "inputs": [
        {
          "internalType": "uint256",
          "name": "_stakeMaximum",
          "type": "uint256"
        }
      ],
      "name": "setStakeMaximum",
      "outputs": [],
      "stateMutability": "nonpayable",
      "type": "function"
    },
    {
      "inputs": [
        {
          "internalType": "uint256[]",
          "name": "_tokenIds",
          "type": "uint256[]"
        }
      ],
      "name": "stake",
      "outputs": [],
      "stateMutability": "nonpayable",
      "type": "function"
    },
    {
      "inputs": [
        {
          "internalType": "uint256",
          "name": "",
          "type": "uint256"
        }
      ],
      "name": "stakedNfts",
      "outputs": [
        {
          "internalType": "contract ERC721",
          "name": "",
          "type": "address"
        }
      ],
      "stateMutability": "view",
      "type": "function"
    },
    {
      "inputs": [
        {
          "internalType": "uint256",
          "name": "_tokenId",
          "type": "uint256"
        }
      ],
      "name": "tokenIdToCollectionIndex",
      "outputs": [
        {
          "internalType": "uint256",
          "name": "",
          "type": "uint256"
        }
      ],
      "stateMutability": "pure",
      "type": "function"
    },
    {
      "inputs": [
        {
          "internalType": "address",
          "name": "newOwner",
          "type": "address"
        }
      ],
      "name": "transferOwnership",
      "outputs": [],
      "stateMutability": "nonpayable",
      "type": "function"
    },
    {
      "inputs": [
        {
          "internalType": "uint256[]",
          "name": "_tokenIds",
          "type": "uint256[]"
        }
      ],
      "name": "unstake",
      "outputs": [],
      "stateMutability": "nonpayable",
      "type": "function"
    }
  ],
  "bytecode": "0x608060405234801561001057600080fd5b50612b22806100206000396000f3fe608060405234801561001057600080fd5b50600436106101165760003560e01c8063715018a6116100a2578063d8a201d111610071578063d8a201d1146102f3578063dec9a4c914610323578063e449f34114610341578063f0a524241461035d578063f2fde38b1461038d57610116565b8063715018a61461026b5780638da5cb5b14610275578063a04ebd4b14610293578063c85d9a7f146102c357610116565b80631c8ffe7d116100e95780631c8ffe7d146101c75780632d681bf5146101e55780634184f651146102015780634ecd1a501461021f57806363c28db11461023b57610116565b80630150aefb1461011b5780630fbf0a931461014b5780630ff7f02914610167578063150b7a0214610197575b600080fd5b61013560048036038101906101309190611c27565b6103a9565b6040516101429190611c6f565b60405180910390f35b61016560048036038101906101609190611de3565b6103c9565b005b610181600480360381019061017c9190611c27565b610a23565b60405161018e9190611e3b565b60405180910390f35b6101b160048036038101906101ac9190611f69565b610a42565b6040516101be9190612027565b60405180910390f35b6101cf610a56565b6040516101dc9190612100565b60405180910390f35b6101ff60048036038101906101fa9190611c27565b610ae4565b005b610209610af6565b6040516102169190612181565b60405180910390f35b6102396004803603810190610234919061225f565b610b1c565b005b6102556004803603810190610250919061231d565b610c79565b6040516102629190612408565b60405180910390f35b610273610d13565b005b61027d610d27565b60405161028a9190612439565b60405180910390f35b6102ad60048036038101906102a8919061231d565b610d50565b6040516102ba9190612408565b60405180910390f35b6102dd60048036038101906102d89190611c27565b610dea565b6040516102ea9190612475565b60405180910390f35b61030d6004803603810190610308919061231d565b610e29565b60405161031a9190612408565b60405180910390f35b61032b610ec3565b60405161033891906124b1565b60405180910390f35b61035b60048036038101906103569190611de3565b610ee9565b005b61037760048036038101906103729190611c27565b6114b5565b6040516103849190611c6f565b60405180910390f35b6103a760048036038101906103a2919061231d565b61159a565b005b60086020528060005260406000206000915054906101000a900460ff1681565b6103d161161d565b60008151905060055481101580156103eb57506006548111155b61042a576040517f08c379a000000000000000000000000000000000000000000000000000000000815260040161042190612529565b60405180910390fd5b60005b818110156106375760001515600860008584815181106104505761044f612549565b5b6020026020010151815260200190815260200160002060009054906101000a900460ff161515146104b6576040517f08c379a00000000000000000000000000000000000000000000000000000000081526004016104ad906125c4565b60405180910390fd5b3373ffffffffffffffffffffffffffffffffffffffff1660026104f28584815181106104e5576104e4612549565b5b6020026020010151610a23565b8154811061050357610502612549565b5b9060005260206000200160009054906101000a900473ffffffffffffffffffffffffffffffffffffffff1673ffffffffffffffffffffffffffffffffffffffff16636352211e61271086858151811061055f5761055e612549565b5b60200260200101516105719190612613565b6040518263ffffffff1660e01b815260040161058d9190611e3b565b602060405180830381865afa1580156105aa573d6000803e3d6000fd5b505050506040513d601f19601f820116820180604052508101906105ce9190612659565b73ffffffffffffffffffffffffffffffffffffffff1614610624576040517f08c379a000000000000000000000000000000000000000000000000000000000815260040161061b906126d2565b60405180910390fd5b808061062f90612721565b91505061042d565b5060005b818110156109b357600261066884838151811061065b5761065a612549565b5b6020026020010151610a23565b8154811061067957610678612549565b5b9060005260206000200160009054906101000a900473ffffffffffffffffffffffffffffffffffffffff1673ffffffffffffffffffffffffffffffffffffffff166342842e0e33306127108786815181106106d7576106d6612549565b5b60200260200101516106e99190612613565b6040518463ffffffff1660e01b815260040161070793929190612769565b600060405180830381600087803b15801561072157600080fd5b505af1158015610735573d6000803e3d6000fd5b505050506000600360009054906101000a900473ffffffffffffffffffffffffffffffffffffffff1673ffffffffffffffffffffffffffffffffffffffff16633c168eab3386858151811061078d5761078c612549565b5b60200260200101516040518363ffffffff1660e01b81526004016107b29291906127a0565b6020604051808303816000875af11580156107d1573d6000803e3d6000fd5b505050506040513d601f19601f820116820180604052508101906107f591906127de565b9050600960003373ffffffffffffffffffffffffffffffffffffffff1673ffffffffffffffffffffffffffffffffffffffff16815260200190815260200160002060000184838151811061084c5761084b612549565b5b60200260200101519080600181540180825580915050600190039060005260206000200160009091909190915055600960003373ffffffffffffffffffffffffffffffffffffffff1673ffffffffffffffffffffffffffffffffffffffff168152602001908152602001600020600101819080600181540180825580915050600190039060005260206000200160009091909190915055600960003373ffffffffffffffffffffffffffffffffffffffff1673ffffffffffffffffffffffffffffffffffffffff1681526020019081526020016000206002014290806001815401808255809150506001900390600052602060002001600090919091909150557fb9a8e9862e9f26d54fc878291fa9354d1629940f2a39517bd62522ec47aec1058483815181106109805761097f612549565b5b60200260200101514260405161099792919061280b565b60405180910390a15080806109ab90612721565b91505061063b565b50600a339080600181540180825580915050600190039060005260206000200160009091909190916101000a81548173ffffffffffffffffffffffffffffffffffffffff021916908373ffffffffffffffffffffffffffffffffffffffff16021790555050610a2061166c565b50565b6000612710821015610a385760009050610a3d565b600190505b919050565b600063150b7a0260e01b9050949350505050565b6060600a805480602002602001604051908101604052809291908181526020018280548015610ada57602002820191906000526020600020905b8160009054906101000a900473ffffffffffffffffffffffffffffffffffffffff1673ffffffffffffffffffffffffffffffffffffffff1681526020019060010190808311610a90575b5050505050905090565b610aec611675565b8060068190555050565b600460009054906101000a900473ffffffffffffffffffffffffffffffffffffffff1681565b60018081905550866005819055508560068190555084600781905550610b48610b436116f3565b6116fb565b60005b8351811015610be4576002848281518110610b6957610b68612549565b5b60200260200101519080600181540180825580915050600190039060005260206000200160009091909190916101000a81548173ffffffffffffffffffffffffffffffffffffffff021916908373ffffffffffffffffffffffffffffffffffffffff1602179055508080610bdc90612721565b915050610b4b565b5081600360006101000a81548173ffffffffffffffffffffffffffffffffffffffff021916908373ffffffffffffffffffffffffffffffffffffffff16021790555080600460006101000a81548173ffffffffffffffffffffffffffffffffffffffff021916908373ffffffffffffffffffffffffffffffffffffffff160217905550610c708461159a565b50505050505050565b6060600960008373ffffffffffffffffffffffffffffffffffffffff1673ffffffffffffffffffffffffffffffffffffffff168152602001908152602001600020600001805480602002602001604051908101604052809291908181526020018280548015610d0757602002820191906000526020600020905b815481526020019060010190808311610cf3575b50505050509050919050565b610d1b611675565b610d2560006116fb565b565b60008060009054906101000a900473ffffffffffffffffffffffffffffffffffffffff16905090565b6060600960008373ffffffffffffffffffffffffffffffffffffffff1673ffffffffffffffffffffffffffffffffffffffff168152602001908152602001600020600201805480602002602001604051908101604052809291908181526020018280548015610dde57602002820191906000526020600020905b815481526020019060010190808311610dca575b50505050509050919050565b60028181548110610dfa57600080fd5b906000526020600020016000915054906101000a900473ffffffffffffffffffffffffffffffffffffffff1681565b6060600960008373ffffffffffffffffffffffffffffffffffffffff1673ffffffffffffffffffffffffffffffffffffffff168152602001908152602001600020600101805480602002602001604051908101604052809291908181526020018280548015610eb757602002820191906000526020600020905b815481526020019060010190808311610ea3575b50505050509050919050565b600360009054906101000a900473ffffffffffffffffffffffffffffffffffffffff1681565b610ef161161d565b60005b81518110156114a957600080610f24848481518110610f1657610f15612549565b5b6020026020010151336117bf565b9150915080610f68576040517f08c379a0000000000000000000000000000000000000000000000000000000008152600401610f5f90612880565b60405180910390fd5b6002610f8d858581518110610f8057610f7f612549565b5b6020026020010151610a23565b81548110610f9e57610f9d612549565b5b9060005260206000200160009054906101000a900473ffffffffffffffffffffffffffffffffffffffff1673ffffffffffffffffffffffffffffffffffffffff166342842e0e3033612710888881518110610ffc57610ffb612549565b5b602002602001015161100e9190612613565b6040518463ffffffff1660e01b815260040161102c93929190612769565b600060405180830381600087803b15801561104657600080fd5b505af115801561105a573d6000803e3d6000fd5b505050503373ffffffffffffffffffffffffffffffffffffffff16600360009054906101000a900473ffffffffffffffffffffffffffffffffffffffff1673ffffffffffffffffffffffffffffffffffffffff16636352211e600960003373ffffffffffffffffffffffffffffffffffffffff1673ffffffffffffffffffffffffffffffffffffffff168152602001908152602001600020600101868154811061110757611106612549565b5b90600052602060002001546040518263ffffffff1660e01b815260040161112e9190611e3b565b602060405180830381865afa15801561114b573d6000803e3d6000fd5b505050506040513d601f19601f8201168201806040525081019061116f9190612659565b73ffffffffffffffffffffffffffffffffffffffff160361127c57600360009054906101000a900473ffffffffffffffffffffffffffffffffffffffff1673ffffffffffffffffffffffffffffffffffffffff166342842e0e3361dead600960003373ffffffffffffffffffffffffffffffffffffffff1673ffffffffffffffffffffffffffffffffffffffff16815260200190815260200160002060010187815481106112205761121f612549565b5b90600052602060002001546040518463ffffffff1660e01b815260040161124993929190612769565b600060405180830381600087803b15801561126357600080fd5b505af1158015611277573d6000803e3d6000fd5b505050505b6000600754600960003373ffffffffffffffffffffffffffffffffffffffff1673ffffffffffffffffffffffffffffffffffffffff16815260200190815260200160002060020184815481106112d5576112d4612549565b5b90600052602060002001546112ea91906128a0565b4211905080156113e457600460009054906101000a900473ffffffffffffffffffffffffffffffffffffffff1673ffffffffffffffffffffffffffffffffffffffff16633c168eab3387878151811061134657611345612549565b5b60200260200101516040518363ffffffff1660e01b815260040161136b9291906127a0565b600060405180830381600087803b15801561138557600080fd5b505af1158015611399573d6000803e3d6000fd5b505050506001600860008787815181106113b6576113b5612549565b5b6020026020010151815260200190815260200160002060006101000a81548160ff0219169083151502179055505b61144033846001600960003373ffffffffffffffffffffffffffffffffffffffff1673ffffffffffffffffffffffffffffffffffffffff1681526020019081526020016000206000018054905061143b91906128f6565b611986565b7f09c46e2553b5a68f8b200b109758d838d5b6b7d8e8615b8b6e3915c5f1e1a73e85858151811061147457611473612549565b5b60200260200101518260405161148b92919061292a565b60405180910390a150505080806114a190612721565b915050610ef4565b506114b261166c565b50565b600080600960003373ffffffffffffffffffffffffffffffffffffffff1673ffffffffffffffffffffffffffffffffffffffff16815260200190815260200160002060000180549050905060005b8181101561158e5783600960003373ffffffffffffffffffffffffffffffffffffffff1673ffffffffffffffffffffffffffffffffffffffff16815260200190815260200160002060000182815481106115605761155f612549565b5b90600052602060002001540361157b57600192505050611595565b808061158690612721565b915050611503565b5060009150505b919050565b6115a2611675565b600073ffffffffffffffffffffffffffffffffffffffff168173ffffffffffffffffffffffffffffffffffffffff1603611611576040517f08c379a0000000000000000000000000000000000000000000000000000000008152600401611608906129c5565b60405180910390fd5b61161a816116fb565b50565b600260015403611662576040517f08c379a000000000000000000000000000000000000000000000000000000000815260040161165990612a31565b60405180910390fd5b6002600181905550565b60018081905550565b61167d6116f3565b73ffffffffffffffffffffffffffffffffffffffff1661169b610d27565b73ffffffffffffffffffffffffffffffffffffffff16146116f1576040517f08c379a00000000000000000000000000000000000000000000000000000000081526004016116e890612a9d565b60405180910390fd5b565b600033905090565b60008060009054906101000a900473ffffffffffffffffffffffffffffffffffffffff169050816000806101000a81548173ffffffffffffffffffffffffffffffffffffffff021916908373ffffffffffffffffffffffffffffffffffffffff1602179055508173ffffffffffffffffffffffffffffffffffffffff168173ffffffffffffffffffffffffffffffffffffffff167f8be0079c531659141344cd1fd0a4f28419497f9722a3daafe3b4186f6b6457e060405160405180910390a35050565b6000806000600960008573ffffffffffffffffffffffffffffffffffffffff1673ffffffffffffffffffffffffffffffffffffffff1681526020019081526020016000206040518060600160405290816000820180548060200260200160405190810160405280929190818152602001828054801561185d57602002820191906000526020600020905b815481526020019060010190808311611849575b50505050508152602001600182018054806020026020016040519081016040528092919081815260200182805480156118b557602002820191906000526020600020905b8154815260200190600101908083116118a1575b505050505081526020016002820180548060200260200160405190810160405280929190818152602001828054801561190d57602002820191906000526020600020905b8154815260200190600101908083116118f9575b50505050508152505090506000806000836000015151905060005b8181101561197457888560000151828151811061194857611947612549565b5b6020026020010151036119615780935060019250611974565b808061196c90612721565b915050611928565b50828295509550505050509250929050565b600960008473ffffffffffffffffffffffffffffffffffffffff1673ffffffffffffffffffffffffffffffffffffffff16815260200190815260200160002060020181815481106119da576119d9612549565b5b9060005260206000200154600960008573ffffffffffffffffffffffffffffffffffffffff1673ffffffffffffffffffffffffffffffffffffffff1681526020019081526020016000206002018381548110611a3957611a38612549565b5b9060005260206000200181905550600960008473ffffffffffffffffffffffffffffffffffffffff1673ffffffffffffffffffffffffffffffffffffffff168152602001908152602001600020600201805480611a9957611a98612abd565b5b60019003818190600052602060002001600090559055600960008473ffffffffffffffffffffffffffffffffffffffff1673ffffffffffffffffffffffffffffffffffffffff1681526020019081526020016000206000018181548110611b0357611b02612549565b5b9060005260206000200154600960008573ffffffffffffffffffffffffffffffffffffffff1673ffffffffffffffffffffffffffffffffffffffff1681526020019081526020016000206000018381548110611b6257611b61612549565b5b9060005260206000200181905550600960008473ffffffffffffffffffffffffffffffffffffffff1673ffffffffffffffffffffffffffffffffffffffff168152602001908152602001600020600001805480611bc257611bc1612abd565b5b60019003818190600052602060002001600090559055505050565b6000604051905090565b600080fd5b600080fd5b6000819050919050565b611c0481611bf1565b8114611c0f57600080fd5b50565b600081359050611c2181611bfb565b92915050565b600060208284031215611c3d57611c3c611be7565b5b6000611c4b84828501611c12565b91505092915050565b60008115159050919050565b611c6981611c54565b82525050565b6000602082019050611c846000830184611c60565b92915050565b600080fd5b6000601f19601f8301169050919050565b7f4e487b7100000000000000000000000000000000000000000000000000000000600052604160045260246000fd5b611cd882611c8f565b810181811067ffffffffffffffff82111715611cf757611cf6611ca0565b5b80604052505050565b6000611d0a611bdd565b9050611d168282611ccf565b919050565b600067ffffffffffffffff821115611d3657611d35611ca0565b5b602082029050602081019050919050565b600080fd5b6000611d5f611d5a84611d1b565b611d00565b90508083825260208201905060208402830185811115611d8257611d81611d47565b5b835b81811015611dab5780611d978882611c12565b845260208401935050602081019050611d84565b5050509392505050565b600082601f830112611dca57611dc9611c8a565b5b8135611dda848260208601611d4c565b91505092915050565b600060208284031215611df957611df8611be7565b5b600082013567ffffffffffffffff811115611e1757611e16611bec565b5b611e2384828501611db5565b91505092915050565b611e3581611bf1565b82525050565b6000602082019050611e506000830184611e2c565b92915050565b600073ffffffffffffffffffffffffffffffffffffffff82169050919050565b6000611e8182611e56565b9050919050565b611e9181611e76565b8114611e9c57600080fd5b50565b600081359050611eae81611e88565b92915050565b600080fd5b600067ffffffffffffffff821115611ed457611ed3611ca0565b5b611edd82611c8f565b9050602081019050919050565b82818337600083830152505050565b6000611f0c611f0784611eb9565b611d00565b905082815260208101848484011115611f2857611f27611eb4565b5b611f33848285611eea565b509392505050565b600082601f830112611f5057611f4f611c8a565b5b8135611f60848260208601611ef9565b91505092915050565b60008060008060808587031215611f8357611f82611be7565b5b6000611f9187828801611e9f565b9450506020611fa287828801611e9f565b9350506040611fb387828801611c12565b925050606085013567ffffffffffffffff811115611fd457611fd3611bec565b5b611fe087828801611f3b565b91505092959194509250565b60007fffffffff0000000000000000000000000000000000000000000000000000000082169050919050565b61202181611fec565b82525050565b600060208201905061203c6000830184612018565b92915050565b600081519050919050565b600082825260208201905092915050565b6000819050602082019050919050565b61207781611e76565b82525050565b6000612089838361206e565b60208301905092915050565b6000602082019050919050565b60006120ad82612042565b6120b7818561204d565b93506120c28361205e565b8060005b838110156120f35781516120da888261207d565b97506120e583612095565b9250506001810190506120c6565b5085935050505092915050565b6000602082019050818103600083015261211a81846120a2565b905092915050565b6000819050919050565b600061214761214261213d84611e56565b612122565b611e56565b9050919050565b60006121598261212c565b9050919050565b600061216b8261214e565b9050919050565b61217b81612160565b82525050565b60006020820190506121966000830184612172565b92915050565b600067ffffffffffffffff8211156121b7576121b6611ca0565b5b602082029050602081019050919050565b60006121db6121d68461219c565b611d00565b905080838252602082019050602084028301858111156121fe576121fd611d47565b5b835b8181101561222757806122138882611e9f565b845260208401935050602081019050612200565b5050509392505050565b600082601f83011261224657612245611c8a565b5b81356122568482602086016121c8565b91505092915050565b600080600080600080600060e0888a03121561227e5761227d611be7565b5b600061228c8a828b01611c12565b975050602061229d8a828b01611c12565b96505060406122ae8a828b01611c12565b95505060606122bf8a828b01611e9f565b945050608088013567ffffffffffffffff8111156122e0576122df611bec565b5b6122ec8a828b01612231565b93505060a06122fd8a828b01611e9f565b92505060c061230e8a828b01611e9f565b91505092959891949750929550565b60006020828403121561233357612332611be7565b5b600061234184828501611e9f565b91505092915050565b600081519050919050565b600082825260208201905092915050565b6000819050602082019050919050565b61237f81611bf1565b82525050565b60006123918383612376565b60208301905092915050565b6000602082019050919050565b60006123b58261234a565b6123bf8185612355565b93506123ca83612366565b8060005b838110156123fb5781516123e28882612385565b97506123ed8361239d565b9250506001810190506123ce565b5085935050505092915050565b6000602082019050818103600083015261242281846123aa565b905092915050565b61243381611e76565b82525050565b600060208201905061244e600083018461242a565b92915050565b600061245f8261214e565b9050919050565b61246f81612454565b82525050565b600060208201905061248a6000830184612466565b92915050565b600061249b8261214e565b9050919050565b6124ab81612490565b82525050565b60006020820190506124c660008301846124a2565b92915050565b600082825260208201905092915050565b7f5374616b6520616d6f756e7420696e636f727265637400000000000000000000600082015250565b60006125136016836124cc565b915061251e826124dd565b602082019050919050565b6000602082019050818103600083015261254281612506565b9050919050565b7f4e487b7100000000000000000000000000000000000000000000000000000000600052603260045260246000fd5b7f4e465420616c726561647920636c61696d656400000000000000000000000000600082015250565b60006125ae6013836124cc565b91506125b982612578565b602082019050919050565b600060208201905081810360008301526125dd816125a1565b9050919050565b7f4e487b7100000000000000000000000000000000000000000000000000000000600052601260045260246000fd5b600061261e82611bf1565b915061262983611bf1565b925082612639576126386125e4565b5b828206905092915050565b60008151905061265381611e88565b92915050565b60006020828403121561266f5761266e611be7565b5b600061267d84828501612644565b91505092915050565b7f596f7520646f206e6f74206f776e2074686973204e6674000000000000000000600082015250565b60006126bc6017836124cc565b91506126c782612686565b602082019050919050565b600060208201905081810360008301526126eb816126af565b9050919050565b7f4e487b7100000000000000000000000000000000000000000000000000000000600052601160045260246000fd5b600061272c82611bf1565b91507fffffffffffffffffffffffffffffffffffffffffffffffffffffffffffffffff820361275e5761275d6126f2565b5b600182019050919050565b600060608201905061277e600083018661242a565b61278b602083018561242a565b6127986040830184611e2c565b949350505050565b60006040820190506127b5600083018561242a565b6127c26020830184611e2c565b9392505050565b6000815190506127d881611bfb565b92915050565b6000602082840312156127f4576127f3611be7565b5b6000612802848285016127c9565b91505092915050565b60006040820190506128206000830185611e2c565b61282d6020830184611e2c565b9392505050565b7f496e646578206e6f7420666f756e6420666f722074686973207374616b65722e600082015250565b600061286a6020836124cc565b915061287582612834565b602082019050919050565b600060208201905081810360008301526128998161285d565b9050919050565b60006128ab82611bf1565b91506128b683611bf1565b9250827fffffffffffffffffffffffffffffffffffffffffffffffffffffffffffffffff038211156128eb576128ea6126f2565b5b828201905092915050565b600061290182611bf1565b915061290c83611bf1565b92508282101561291f5761291e6126f2565b5b828203905092915050565b600060408201905061293f6000830185611e2c565b61294c6020830184611c60565b9392505050565b7f4f776e61626c653a206e6577206f776e657220697320746865207a65726f206160008201527f6464726573730000000000000000000000000000000000000000000000000000602082015250565b60006129af6026836124cc565b91506129ba82612953565b604082019050919050565b600060208201905081810360008301526129de816129a2565b9050919050565b7f5265656e7472616e637947756172643a207265656e7472616e742063616c6c00600082015250565b6000612a1b601f836124cc565b9150612a26826129e5565b602082019050919050565b60006020820190508181036000830152612a4a81612a0e565b9050919050565b7f4f776e61626c653a2063616c6c6572206973206e6f7420746865206f776e6572600082015250565b6000612a876020836124cc565b9150612a9282612a51565b602082019050919050565b60006020820190508181036000830152612ab681612a7a565b9050919050565b7f4e487b7100000000000000000000000000000000000000000000000000000000600052603160045260246000fdfea26469706673582212203c8a46ada2fdfecc9f1fbd7982ae26a8becb64ba29c29a9352f0af3a8840961864736f6c634300080d0033",
  "linkReferences": {},
  "deployedLinkReferences": {}
}