{
  "_format": "hh-sol-artifact-1",
  "contractName": "NFTStaker",
  "sourceName": "src/backend/contracts/NFTStaker.sol",
  "abi": [
    {
      "inputs": [
        {
          "internalType": "uint256",
          "name": "_stakingPeriod",
          "type": "uint256"
        },
        {
          "internalType": "address",
          "name": "_ownerAddress",
          "type": "address"
        },
        {
          "internalType": "address[]",
          "name": "_stakedNfts",
          "type": "address[]"
        },
        {
          "internalType": "address",
          "name": "_placeholderNftAddress",
          "type": "address"
        },
        {
          "internalType": "address",
          "name": "_rewardNftAddress",
          "type": "address"
        }
      ],
      "stateMutability": "nonpayable",
      "type": "constructor"
    },
    {
      "anonymous": false,
      "inputs": [
        {
          "indexed": true,
          "internalType": "address",
          "name": "previousOwner",
          "type": "address"
        },
        {
          "indexed": true,
          "internalType": "address",
          "name": "newOwner",
          "type": "address"
        }
      ],
      "name": "OwnershipTransferred",
      "type": "event"
    },
    {
      "anonymous": false,
      "inputs": [
        {
          "indexed": false,
          "internalType": "uint256",
          "name": "tokenId",
          "type": "uint256"
        },
        {
          "indexed": false,
          "internalType": "uint256",
          "name": "timestamp",
          "type": "uint256"
        }
      ],
      "name": "StakeSuccessful",
      "type": "event"
    },
    {
      "anonymous": false,
      "inputs": [
        {
          "indexed": false,
          "internalType": "uint256",
          "name": "tokenId",
          "type": "uint256"
        },
        {
          "indexed": false,
          "internalType": "bool",
          "name": "rewardClaimed",
          "type": "bool"
        }
      ],
      "name": "UnstakeSuccessful",
      "type": "event"
    },
    {
      "inputs": [
        {
          "internalType": "uint256",
          "name": "",
          "type": "uint256"
        }
      ],
      "name": "claimedNfts",
      "outputs": [
        {
          "internalType": "bool",
          "name": "",
          "type": "bool"
        }
      ],
      "stateMutability": "view",
      "type": "function"
    },
    {
      "inputs": [
        {
          "internalType": "address",
          "name": "_user",
          "type": "address"
        }
      ],
      "name": "getPlaceholderTokenIds",
      "outputs": [
        {
          "internalType": "uint256[]",
          "name": "tokenIds",
          "type": "uint256[]"
        }
      ],
      "stateMutability": "view",
      "type": "function"
    },
    {
      "inputs": [
        {
          "internalType": "address",
          "name": "_user",
          "type": "address"
        }
      ],
      "name": "getStakedTimestamps",
      "outputs": [
        {
          "internalType": "uint256[]",
          "name": "timestamps",
          "type": "uint256[]"
        }
      ],
      "stateMutability": "view",
      "type": "function"
    },
    {
      "inputs": [
        {
          "internalType": "address",
          "name": "_user",
          "type": "address"
        }
      ],
      "name": "getStakedTokens",
      "outputs": [
        {
          "internalType": "uint256[]",
          "name": "tokenIds",
          "type": "uint256[]"
        }
      ],
      "stateMutability": "view",
      "type": "function"
    },
    {
      "inputs": [],
      "name": "getStakerAddresses",
      "outputs": [
        {
          "internalType": "address[]",
          "name": "",
          "type": "address[]"
        }
      ],
      "stateMutability": "view",
      "type": "function"
    },
    {
      "inputs": [
        {
          "internalType": "uint256",
          "name": "_stakingPeriod",
          "type": "uint256"
        },
        {
          "internalType": "address",
          "name": "_ownerAddress",
          "type": "address"
        },
        {
          "internalType": "address[]",
          "name": "_stakedNfts",
          "type": "address[]"
        },
        {
          "internalType": "address",
          "name": "_placeholderNftAddress",
          "type": "address"
        },
        {
          "internalType": "address",
          "name": "_rewardNftAddress",
          "type": "address"
        }
      ],
      "name": "initialize",
      "outputs": [],
      "stateMutability": "nonpayable",
      "type": "function"
    },
    {
      "inputs": [
        {
          "internalType": "uint256",
          "name": "_tokenId",
          "type": "uint256"
        }
      ],
      "name": "isTokenStaked",
      "outputs": [
        {
          "internalType": "bool",
          "name": "",
          "type": "bool"
        }
      ],
      "stateMutability": "view",
      "type": "function"
    },
    {
      "inputs": [
        {
          "internalType": "address",
          "name": "",
          "type": "address"
        },
        {
          "internalType": "address",
          "name": "",
          "type": "address"
        },
        {
          "internalType": "uint256",
          "name": "",
          "type": "uint256"
        },
        {
          "internalType": "bytes",
          "name": "",
          "type": "bytes"
        }
      ],
      "name": "onERC721Received",
      "outputs": [
        {
          "internalType": "bytes4",
          "name": "",
          "type": "bytes4"
        }
      ],
      "stateMutability": "nonpayable",
      "type": "function"
    },
    {
      "inputs": [],
      "name": "owner",
      "outputs": [
        {
          "internalType": "address",
          "name": "",
          "type": "address"
        }
      ],
      "stateMutability": "view",
      "type": "function"
    },
    {
      "inputs": [],
      "name": "placeholderNft",
      "outputs": [
        {
          "internalType": "contract PlaceholderNFT",
          "name": "",
          "type": "address"
        }
      ],
      "stateMutability": "view",
      "type": "function"
    },
    {
      "inputs": [],
      "name": "renounceOwnership",
      "outputs": [],
      "stateMutability": "nonpayable",
      "type": "function"
    },
    {
      "inputs": [],
      "name": "rewardNft",
      "outputs": [
        {
          "internalType": "contract RewardNFT",
          "name": "",
          "type": "address"
        }
      ],
      "stateMutability": "view",
      "type": "function"
    },
    {
      "inputs": [
        {
          "internalType": "uint256",
          "name": "_stakeMaximum",
          "type": "uint256"
        }
      ],
      "name": "setStakeMaximum",
      "outputs": [],
      "stateMutability": "nonpayable",
      "type": "function"
    },
    {
      "inputs": [
        {
          "internalType": "uint256[]",
          "name": "_tokenIds",
          "type": "uint256[]"
        }
      ],
      "name": "stake",
      "outputs": [],
      "stateMutability": "nonpayable",
      "type": "function"
    },
    {
      "inputs": [
        {
          "internalType": "uint256",
          "name": "",
          "type": "uint256"
        }
      ],
      "name": "stakedNfts",
      "outputs": [
        {
          "internalType": "contract ERC721",
          "name": "",
          "type": "address"
        }
      ],
      "stateMutability": "view",
      "type": "function"
    },
    {
      "inputs": [
        {
          "internalType": "uint256",
          "name": "_tokenId",
          "type": "uint256"
        }
      ],
      "name": "tokenIdToCollectionIndex",
      "outputs": [
        {
          "internalType": "uint256",
          "name": "",
          "type": "uint256"
        }
      ],
      "stateMutability": "pure",
      "type": "function"
    },
    {
      "inputs": [
        {
          "internalType": "address",
          "name": "newOwner",
          "type": "address"
        }
      ],
      "name": "transferOwnership",
      "outputs": [],
      "stateMutability": "nonpayable",
      "type": "function"
    },
    {
      "inputs": [
        {
          "internalType": "uint256[]",
          "name": "_tokenIds",
          "type": "uint256[]"
        }
      ],
      "name": "unstake",
      "outputs": [],
      "stateMutability": "nonpayable",
      "type": "function"
    }
  ],
  "bytecode": "0x60806040526001600555600a60065561012c6007553480156200002157600080fd5b50604051620033733803806200337383398181016040528101906200004791906200061c565b60016000819055506200006f620000636200008f60201b60201c565b6200009760201b60201c565b6200008485858585856200015d60201b60201c565b505050505062000889565b600033905090565b6000600160009054906101000a900473ffffffffffffffffffffffffffffffffffffffff16905081600160006101000a81548173ffffffffffffffffffffffffffffffffffffffff021916908373ffffffffffffffffffffffffffffffffffffffff1602179055508173ffffffffffffffffffffffffffffffffffffffff168173ffffffffffffffffffffffffffffffffffffffff167f8be0079c531659141344cd1fd0a4f28419497f9722a3daafe3b4186f6b6457e060405160405180910390a35050565b8460078190555060005b835181101562000207576002848281518110620001895762000188620006c3565b5b60200260200101519080600181540180825580915050600190039060005260206000200160009091909190916101000a81548173ffffffffffffffffffffffffffffffffffffffff021916908373ffffffffffffffffffffffffffffffffffffffff1602179055508080620001fe9062000721565b91505062000167565b5081600360006101000a81548173ffffffffffffffffffffffffffffffffffffffff021916908373ffffffffffffffffffffffffffffffffffffffff16021790555080600460006101000a81548173ffffffffffffffffffffffffffffffffffffffff021916908373ffffffffffffffffffffffffffffffffffffffff1602179055506200029b84620002a260201b60201c565b5050505050565b620002b26200033860201b60201c565b600073ffffffffffffffffffffffffffffffffffffffff168173ffffffffffffffffffffffffffffffffffffffff160362000324576040517f08c379a00000000000000000000000000000000000000000000000000000000081526004016200031b90620007f5565b60405180910390fd5b62000335816200009760201b60201c565b50565b620003486200008f60201b60201c565b73ffffffffffffffffffffffffffffffffffffffff166200036e620003c960201b60201c565b73ffffffffffffffffffffffffffffffffffffffff1614620003c7576040517f08c379a0000000000000000000000000000000000000000000000000000000008152600401620003be9062000867565b60405180910390fd5b565b6000600160009054906101000a900473ffffffffffffffffffffffffffffffffffffffff16905090565b6000604051905090565b600080fd5b600080fd5b6000819050919050565b6200041c8162000407565b81146200042857600080fd5b50565b6000815190506200043c8162000411565b92915050565b600073ffffffffffffffffffffffffffffffffffffffff82169050919050565b60006200046f8262000442565b9050919050565b620004818162000462565b81146200048d57600080fd5b50565b600081519050620004a18162000476565b92915050565b600080fd5b6000601f19601f8301169050919050565b7f4e487b7100000000000000000000000000000000000000000000000000000000600052604160045260246000fd5b620004f782620004ac565b810181811067ffffffffffffffff82111715620005195762000518620004bd565b5b80604052505050565b60006200052e620003f3565b90506200053c8282620004ec565b919050565b600067ffffffffffffffff8211156200055f576200055e620004bd565b5b602082029050602081019050919050565b600080fd5b60006200058c620005868462000541565b62000522565b90508083825260208201905060208402830185811115620005b257620005b162000570565b5b835b81811015620005df5780620005ca888262000490565b845260208401935050602081019050620005b4565b5050509392505050565b600082601f830112620006015762000600620004a7565b5b81516200061384826020860162000575565b91505092915050565b600080600080600060a086880312156200063b576200063a620003fd565b5b60006200064b888289016200042b565b95505060206200065e8882890162000490565b945050604086015167ffffffffffffffff81111562000682576200068162000402565b5b6200069088828901620005e9565b9350506060620006a38882890162000490565b9250506080620006b68882890162000490565b9150509295509295909350565b7f4e487b7100000000000000000000000000000000000000000000000000000000600052603260045260246000fd5b7f4e487b7100000000000000000000000000000000000000000000000000000000600052601160045260246000fd5b60006200072e8262000407565b91507fffffffffffffffffffffffffffffffffffffffffffffffffffffffffffffffff8203620007635762000762620006f2565b5b600182019050919050565b600082825260208201905092915050565b7f4f776e61626c653a206e6577206f776e657220697320746865207a65726f206160008201527f6464726573730000000000000000000000000000000000000000000000000000602082015250565b6000620007dd6026836200076e565b9150620007ea826200077f565b604082019050919050565b600060208201905081810360008301526200081081620007ce565b9050919050565b7f4f776e61626c653a2063616c6c6572206973206e6f7420746865206f776e6572600082015250565b60006200084f6020836200076e565b91506200085c8262000817565b602082019050919050565b60006020820190508181036000830152620008828162000840565b9050919050565b612ada80620008996000396000f3fe608060405234801561001057600080fd5b50600436106101165760003560e01c8063715018a6116100a2578063d8a201d111610071578063d8a201d1146102f3578063dec9a4c914610323578063e449f34114610341578063f0a524241461035d578063f2fde38b1461038d57610116565b8063715018a61461026b5780638da5cb5b14610275578063a04ebd4b14610293578063c85d9a7f146102c357610116565b80631c8ffe7d116100e95780631c8ffe7d146101c757806329e55635146101e55780632d681bf5146102015780634184f6511461021d57806363c28db11461023b57610116565b80630150aefb1461011b5780630fbf0a931461014b5780630ff7f02914610167578063150b7a0214610197575b600080fd5b61013560048036038101906101309190611c06565b6103a9565b6040516101429190611c4e565b60405180910390f35b61016560048036038101906101609190611dc2565b6103c9565b005b610181600480360381019061017c9190611c06565b610a23565b60405161018e9190611e1a565b60405180910390f35b6101b160048036038101906101ac9190611f48565b610a42565b6040516101be9190612006565b60405180910390f35b6101cf610a56565b6040516101dc91906120df565b60405180910390f35b6101ff60048036038101906101fa91906121c4565b610ae4565b005b61021b60048036038101906102169190611c06565b610c1a565b005b610225610c2e565b60405161023291906122ba565b60405180910390f35b610255600480360381019061025091906122d5565b610c54565b60405161026291906123c0565b60405180910390f35b610273610cee565b005b61027d610d02565b60405161028a91906123f1565b60405180910390f35b6102ad60048036038101906102a891906122d5565b610d2c565b6040516102ba91906123c0565b60405180910390f35b6102dd60048036038101906102d89190611c06565b610dc6565b6040516102ea919061242d565b60405180910390f35b61030d600480360381019061030891906122d5565b610e05565b60405161031a91906123c0565b60405180910390f35b61032b610e9f565b6040516103389190612469565b60405180910390f35b61035b60048036038101906103569190611dc2565b610ec5565b005b61037760048036038101906103729190611c06565b611491565b6040516103849190611c4e565b60405180910390f35b6103a760048036038101906103a291906122d5565b611576565b005b60086020528060005260406000206000915054906101000a900460ff1681565b6103d16115f9565b60008151905060055481101580156103eb57506006548111155b61042a576040517f08c379a0000000000000000000000000000000000000000000000000000000008152600401610421906124e1565b60405180910390fd5b60005b818110156106375760001515600860008584815181106104505761044f612501565b5b6020026020010151815260200190815260200160002060009054906101000a900460ff161515146104b6576040517f08c379a00000000000000000000000000000000000000000000000000000000081526004016104ad9061257c565b60405180910390fd5b3373ffffffffffffffffffffffffffffffffffffffff1660026104f28584815181106104e5576104e4612501565b5b6020026020010151610a23565b8154811061050357610502612501565b5b9060005260206000200160009054906101000a900473ffffffffffffffffffffffffffffffffffffffff1673ffffffffffffffffffffffffffffffffffffffff16636352211e61271086858151811061055f5761055e612501565b5b602002602001015161057191906125cb565b6040518263ffffffff1660e01b815260040161058d9190611e1a565b602060405180830381865afa1580156105aa573d6000803e3d6000fd5b505050506040513d601f19601f820116820180604052508101906105ce9190612611565b73ffffffffffffffffffffffffffffffffffffffff1614610624576040517f08c379a000000000000000000000000000000000000000000000000000000000815260040161061b9061268a565b60405180910390fd5b808061062f906126d9565b91505061042d565b5060005b818110156109b357600261066884838151811061065b5761065a612501565b5b6020026020010151610a23565b8154811061067957610678612501565b5b9060005260206000200160009054906101000a900473ffffffffffffffffffffffffffffffffffffffff1673ffffffffffffffffffffffffffffffffffffffff166342842e0e33306127108786815181106106d7576106d6612501565b5b60200260200101516106e991906125cb565b6040518463ffffffff1660e01b815260040161070793929190612721565b600060405180830381600087803b15801561072157600080fd5b505af1158015610735573d6000803e3d6000fd5b505050506000600360009054906101000a900473ffffffffffffffffffffffffffffffffffffffff1673ffffffffffffffffffffffffffffffffffffffff16633c168eab3386858151811061078d5761078c612501565b5b60200260200101516040518363ffffffff1660e01b81526004016107b2929190612758565b6020604051808303816000875af11580156107d1573d6000803e3d6000fd5b505050506040513d601f19601f820116820180604052508101906107f59190612796565b9050600960003373ffffffffffffffffffffffffffffffffffffffff1673ffffffffffffffffffffffffffffffffffffffff16815260200190815260200160002060000184838151811061084c5761084b612501565b5b60200260200101519080600181540180825580915050600190039060005260206000200160009091909190915055600960003373ffffffffffffffffffffffffffffffffffffffff1673ffffffffffffffffffffffffffffffffffffffff168152602001908152602001600020600101819080600181540180825580915050600190039060005260206000200160009091909190915055600960003373ffffffffffffffffffffffffffffffffffffffff1673ffffffffffffffffffffffffffffffffffffffff1681526020019081526020016000206002014290806001815401808255809150506001900390600052602060002001600090919091909150557fb9a8e9862e9f26d54fc878291fa9354d1629940f2a39517bd62522ec47aec1058483815181106109805761097f612501565b5b6020026020010151426040516109979291906127c3565b60405180910390a15080806109ab906126d9565b91505061063b565b50600a339080600181540180825580915050600190039060005260206000200160009091909190916101000a81548173ffffffffffffffffffffffffffffffffffffffff021916908373ffffffffffffffffffffffffffffffffffffffff16021790555050610a20611648565b50565b6000612710821015610a385760009050610a3d565b600190505b919050565b600063150b7a0260e01b9050949350505050565b6060600a805480602002602001604051908101604052809291908181526020018280548015610ada57602002820191906000526020600020905b8160009054906101000a900473ffffffffffffffffffffffffffffffffffffffff1673ffffffffffffffffffffffffffffffffffffffff1681526020019060010190808311610a90575b5050505050905090565b8460078190555060005b8351811015610b87576002848281518110610b0c57610b0b612501565b5b60200260200101519080600181540180825580915050600190039060005260206000200160009091909190916101000a81548173ffffffffffffffffffffffffffffffffffffffff021916908373ffffffffffffffffffffffffffffffffffffffff1602179055508080610b7f906126d9565b915050610aee565b5081600360006101000a81548173ffffffffffffffffffffffffffffffffffffffff021916908373ffffffffffffffffffffffffffffffffffffffff16021790555080600460006101000a81548173ffffffffffffffffffffffffffffffffffffffff021916908373ffffffffffffffffffffffffffffffffffffffff160217905550610c1384611576565b5050505050565b610c22611652565b60065460068190555050565b600460009054906101000a900473ffffffffffffffffffffffffffffffffffffffff1681565b6060600960008373ffffffffffffffffffffffffffffffffffffffff1673ffffffffffffffffffffffffffffffffffffffff168152602001908152602001600020600001805480602002602001604051908101604052809291908181526020018280548015610ce257602002820191906000526020600020905b815481526020019060010190808311610cce575b50505050509050919050565b610cf6611652565b610d0060006116d0565b565b6000600160009054906101000a900473ffffffffffffffffffffffffffffffffffffffff16905090565b6060600960008373ffffffffffffffffffffffffffffffffffffffff1673ffffffffffffffffffffffffffffffffffffffff168152602001908152602001600020600201805480602002602001604051908101604052809291908181526020018280548015610dba57602002820191906000526020600020905b815481526020019060010190808311610da6575b50505050509050919050565b60028181548110610dd657600080fd5b906000526020600020016000915054906101000a900473ffffffffffffffffffffffffffffffffffffffff1681565b6060600960008373ffffffffffffffffffffffffffffffffffffffff1673ffffffffffffffffffffffffffffffffffffffff168152602001908152602001600020600101805480602002602001604051908101604052809291908181526020018280548015610e9357602002820191906000526020600020905b815481526020019060010190808311610e7f575b50505050509050919050565b600360009054906101000a900473ffffffffffffffffffffffffffffffffffffffff1681565b610ecd6115f9565b60005b815181101561148557600080610f00848481518110610ef257610ef1612501565b5b602002602001015133611796565b9150915080610f44576040517f08c379a0000000000000000000000000000000000000000000000000000000008152600401610f3b90612838565b60405180910390fd5b6002610f69858581518110610f5c57610f5b612501565b5b6020026020010151610a23565b81548110610f7a57610f79612501565b5b9060005260206000200160009054906101000a900473ffffffffffffffffffffffffffffffffffffffff1673ffffffffffffffffffffffffffffffffffffffff166342842e0e3033612710888881518110610fd857610fd7612501565b5b6020026020010151610fea91906125cb565b6040518463ffffffff1660e01b815260040161100893929190612721565b600060405180830381600087803b15801561102257600080fd5b505af1158015611036573d6000803e3d6000fd5b505050503373ffffffffffffffffffffffffffffffffffffffff16600360009054906101000a900473ffffffffffffffffffffffffffffffffffffffff1673ffffffffffffffffffffffffffffffffffffffff16636352211e600960003373ffffffffffffffffffffffffffffffffffffffff1673ffffffffffffffffffffffffffffffffffffffff16815260200190815260200160002060010186815481106110e3576110e2612501565b5b90600052602060002001546040518263ffffffff1660e01b815260040161110a9190611e1a565b602060405180830381865afa158015611127573d6000803e3d6000fd5b505050506040513d601f19601f8201168201806040525081019061114b9190612611565b73ffffffffffffffffffffffffffffffffffffffff160361125857600360009054906101000a900473ffffffffffffffffffffffffffffffffffffffff1673ffffffffffffffffffffffffffffffffffffffff166342842e0e3361dead600960003373ffffffffffffffffffffffffffffffffffffffff1673ffffffffffffffffffffffffffffffffffffffff16815260200190815260200160002060010187815481106111fc576111fb612501565b5b90600052602060002001546040518463ffffffff1660e01b815260040161122593929190612721565b600060405180830381600087803b15801561123f57600080fd5b505af1158015611253573d6000803e3d6000fd5b505050505b6000600754600960003373ffffffffffffffffffffffffffffffffffffffff1673ffffffffffffffffffffffffffffffffffffffff16815260200190815260200160002060020184815481106112b1576112b0612501565b5b90600052602060002001546112c69190612858565b4211905080156113c057600460009054906101000a900473ffffffffffffffffffffffffffffffffffffffff1673ffffffffffffffffffffffffffffffffffffffff16633c168eab3387878151811061132257611321612501565b5b60200260200101516040518363ffffffff1660e01b8152600401611347929190612758565b600060405180830381600087803b15801561136157600080fd5b505af1158015611375573d6000803e3d6000fd5b5050505060016008600087878151811061139257611391612501565b5b6020026020010151815260200190815260200160002060006101000a81548160ff0219169083151502179055505b61141c33846001600960003373ffffffffffffffffffffffffffffffffffffffff1673ffffffffffffffffffffffffffffffffffffffff1681526020019081526020016000206000018054905061141791906128ae565b61195d565b7f09c46e2553b5a68f8b200b109758d838d5b6b7d8e8615b8b6e3915c5f1e1a73e8585815181106114505761144f612501565b5b6020026020010151826040516114679291906128e2565b60405180910390a1505050808061147d906126d9565b915050610ed0565b5061148e611648565b50565b600080600960003373ffffffffffffffffffffffffffffffffffffffff1673ffffffffffffffffffffffffffffffffffffffff16815260200190815260200160002060000180549050905060005b8181101561156a5783600960003373ffffffffffffffffffffffffffffffffffffffff1673ffffffffffffffffffffffffffffffffffffffff168152602001908152602001600020600001828154811061153c5761153b612501565b5b90600052602060002001540361155757600192505050611571565b8080611562906126d9565b9150506114df565b5060009150505b919050565b61157e611652565b600073ffffffffffffffffffffffffffffffffffffffff168173ffffffffffffffffffffffffffffffffffffffff16036115ed576040517f08c379a00000000000000000000000000000000000000000000000000000000081526004016115e49061297d565b60405180910390fd5b6115f6816116d0565b50565b60026000540361163e576040517f08c379a0000000000000000000000000000000000000000000000000000000008152600401611635906129e9565b60405180910390fd5b6002600081905550565b6001600081905550565b61165a611bb4565b73ffffffffffffffffffffffffffffffffffffffff16611678610d02565b73ffffffffffffffffffffffffffffffffffffffff16146116ce576040517f08c379a00000000000000000000000000000000000000000000000000000000081526004016116c590612a55565b60405180910390fd5b565b6000600160009054906101000a900473ffffffffffffffffffffffffffffffffffffffff16905081600160006101000a81548173ffffffffffffffffffffffffffffffffffffffff021916908373ffffffffffffffffffffffffffffffffffffffff1602179055508173ffffffffffffffffffffffffffffffffffffffff168173ffffffffffffffffffffffffffffffffffffffff167f8be0079c531659141344cd1fd0a4f28419497f9722a3daafe3b4186f6b6457e060405160405180910390a35050565b6000806000600960008573ffffffffffffffffffffffffffffffffffffffff1673ffffffffffffffffffffffffffffffffffffffff1681526020019081526020016000206040518060600160405290816000820180548060200260200160405190810160405280929190818152602001828054801561183457602002820191906000526020600020905b815481526020019060010190808311611820575b505050505081526020016001820180548060200260200160405190810160405280929190818152602001828054801561188c57602002820191906000526020600020905b815481526020019060010190808311611878575b50505050508152602001600282018054806020026020016040519081016040528092919081815260200182805480156118e457602002820191906000526020600020905b8154815260200190600101908083116118d0575b50505050508152505090506000806000836000015151905060005b8181101561194b57888560000151828151811061191f5761191e612501565b5b602002602001015103611938578093506001925061194b565b8080611943906126d9565b9150506118ff565b50828295509550505050509250929050565b600960008473ffffffffffffffffffffffffffffffffffffffff1673ffffffffffffffffffffffffffffffffffffffff16815260200190815260200160002060020181815481106119b1576119b0612501565b5b9060005260206000200154600960008573ffffffffffffffffffffffffffffffffffffffff1673ffffffffffffffffffffffffffffffffffffffff1681526020019081526020016000206002018381548110611a1057611a0f612501565b5b9060005260206000200181905550600960008473ffffffffffffffffffffffffffffffffffffffff1673ffffffffffffffffffffffffffffffffffffffff168152602001908152602001600020600201805480611a7057611a6f612a75565b5b60019003818190600052602060002001600090559055600960008473ffffffffffffffffffffffffffffffffffffffff1673ffffffffffffffffffffffffffffffffffffffff1681526020019081526020016000206000018181548110611ada57611ad9612501565b5b9060005260206000200154600960008573ffffffffffffffffffffffffffffffffffffffff1673ffffffffffffffffffffffffffffffffffffffff1681526020019081526020016000206000018381548110611b3957611b38612501565b5b9060005260206000200181905550600960008473ffffffffffffffffffffffffffffffffffffffff1673ffffffffffffffffffffffffffffffffffffffff168152602001908152602001600020600001805480611b9957611b98612a75565b5b60019003818190600052602060002001600090559055505050565b600033905090565b6000604051905090565b600080fd5b600080fd5b6000819050919050565b611be381611bd0565b8114611bee57600080fd5b50565b600081359050611c0081611bda565b92915050565b600060208284031215611c1c57611c1b611bc6565b5b6000611c2a84828501611bf1565b91505092915050565b60008115159050919050565b611c4881611c33565b82525050565b6000602082019050611c636000830184611c3f565b92915050565b600080fd5b6000601f19601f8301169050919050565b7f4e487b7100000000000000000000000000000000000000000000000000000000600052604160045260246000fd5b611cb782611c6e565b810181811067ffffffffffffffff82111715611cd657611cd5611c7f565b5b80604052505050565b6000611ce9611bbc565b9050611cf58282611cae565b919050565b600067ffffffffffffffff821115611d1557611d14611c7f565b5b602082029050602081019050919050565b600080fd5b6000611d3e611d3984611cfa565b611cdf565b90508083825260208201905060208402830185811115611d6157611d60611d26565b5b835b81811015611d8a5780611d768882611bf1565b845260208401935050602081019050611d63565b5050509392505050565b600082601f830112611da957611da8611c69565b5b8135611db9848260208601611d2b565b91505092915050565b600060208284031215611dd857611dd7611bc6565b5b600082013567ffffffffffffffff811115611df657611df5611bcb565b5b611e0284828501611d94565b91505092915050565b611e1481611bd0565b82525050565b6000602082019050611e2f6000830184611e0b565b92915050565b600073ffffffffffffffffffffffffffffffffffffffff82169050919050565b6000611e6082611e35565b9050919050565b611e7081611e55565b8114611e7b57600080fd5b50565b600081359050611e8d81611e67565b92915050565b600080fd5b600067ffffffffffffffff821115611eb357611eb2611c7f565b5b611ebc82611c6e565b9050602081019050919050565b82818337600083830152505050565b6000611eeb611ee684611e98565b611cdf565b905082815260208101848484011115611f0757611f06611e93565b5b611f12848285611ec9565b509392505050565b600082601f830112611f2f57611f2e611c69565b5b8135611f3f848260208601611ed8565b91505092915050565b60008060008060808587031215611f6257611f61611bc6565b5b6000611f7087828801611e7e565b9450506020611f8187828801611e7e565b9350506040611f9287828801611bf1565b925050606085013567ffffffffffffffff811115611fb357611fb2611bcb565b5b611fbf87828801611f1a565b91505092959194509250565b60007fffffffff0000000000000000000000000000000000000000000000000000000082169050919050565b61200081611fcb565b82525050565b600060208201905061201b6000830184611ff7565b92915050565b600081519050919050565b600082825260208201905092915050565b6000819050602082019050919050565b61205681611e55565b82525050565b6000612068838361204d565b60208301905092915050565b6000602082019050919050565b600061208c82612021565b612096818561202c565b93506120a18361203d565b8060005b838110156120d25781516120b9888261205c565b97506120c483612074565b9250506001810190506120a5565b5085935050505092915050565b600060208201905081810360008301526120f98184612081565b905092915050565b600067ffffffffffffffff82111561211c5761211b611c7f565b5b602082029050602081019050919050565b600061214061213b84612101565b611cdf565b9050808382526020820190506020840283018581111561216357612162611d26565b5b835b8181101561218c57806121788882611e7e565b845260208401935050602081019050612165565b5050509392505050565b600082601f8301126121ab576121aa611c69565b5b81356121bb84826020860161212d565b91505092915050565b600080600080600060a086880312156121e0576121df611bc6565b5b60006121ee88828901611bf1565b95505060206121ff88828901611e7e565b945050604086013567ffffffffffffffff8111156122205761221f611bcb565b5b61222c88828901612196565b935050606061223d88828901611e7e565b925050608061224e88828901611e7e565b9150509295509295909350565b6000819050919050565b600061228061227b61227684611e35565b61225b565b611e35565b9050919050565b600061229282612265565b9050919050565b60006122a482612287565b9050919050565b6122b481612299565b82525050565b60006020820190506122cf60008301846122ab565b92915050565b6000602082840312156122eb576122ea611bc6565b5b60006122f984828501611e7e565b91505092915050565b600081519050919050565b600082825260208201905092915050565b6000819050602082019050919050565b61233781611bd0565b82525050565b6000612349838361232e565b60208301905092915050565b6000602082019050919050565b600061236d82612302565b612377818561230d565b93506123828361231e565b8060005b838110156123b357815161239a888261233d565b97506123a583612355565b925050600181019050612386565b5085935050505092915050565b600060208201905081810360008301526123da8184612362565b905092915050565b6123eb81611e55565b82525050565b600060208201905061240660008301846123e2565b92915050565b600061241782612287565b9050919050565b6124278161240c565b82525050565b6000602082019050612442600083018461241e565b92915050565b600061245382612287565b9050919050565b61246381612448565b82525050565b600060208201905061247e600083018461245a565b92915050565b600082825260208201905092915050565b7f5374616b6520616d6f756e7420696e636f727265637400000000000000000000600082015250565b60006124cb601683612484565b91506124d682612495565b602082019050919050565b600060208201905081810360008301526124fa816124be565b9050919050565b7f4e487b7100000000000000000000000000000000000000000000000000000000600052603260045260246000fd5b7f4e465420616c726561647920636c61696d656400000000000000000000000000600082015250565b6000612566601383612484565b915061257182612530565b602082019050919050565b6000602082019050818103600083015261259581612559565b9050919050565b7f4e487b7100000000000000000000000000000000000000000000000000000000600052601260045260246000fd5b60006125d682611bd0565b91506125e183611bd0565b9250826125f1576125f061259c565b5b828206905092915050565b60008151905061260b81611e67565b92915050565b60006020828403121561262757612626611bc6565b5b6000612635848285016125fc565b91505092915050565b7f596f7520646f206e6f74206f776e2074686973204e6674000000000000000000600082015250565b6000612674601783612484565b915061267f8261263e565b602082019050919050565b600060208201905081810360008301526126a381612667565b9050919050565b7f4e487b7100000000000000000000000000000000000000000000000000000000600052601160045260246000fd5b60006126e482611bd0565b91507fffffffffffffffffffffffffffffffffffffffffffffffffffffffffffffffff8203612716576127156126aa565b5b600182019050919050565b600060608201905061273660008301866123e2565b61274360208301856123e2565b6127506040830184611e0b565b949350505050565b600060408201905061276d60008301856123e2565b61277a6020830184611e0b565b9392505050565b60008151905061279081611bda565b92915050565b6000602082840312156127ac576127ab611bc6565b5b60006127ba84828501612781565b91505092915050565b60006040820190506127d86000830185611e0b565b6127e56020830184611e0b565b9392505050565b7f496e646578206e6f7420666f756e6420666f722074686973207374616b65722e600082015250565b6000612822602083612484565b915061282d826127ec565b602082019050919050565b6000602082019050818103600083015261285181612815565b9050919050565b600061286382611bd0565b915061286e83611bd0565b9250827fffffffffffffffffffffffffffffffffffffffffffffffffffffffffffffffff038211156128a3576128a26126aa565b5b828201905092915050565b60006128b982611bd0565b91506128c483611bd0565b9250828210156128d7576128d66126aa565b5b828203905092915050565b60006040820190506128f76000830185611e0b565b6129046020830184611c3f565b9392505050565b7f4f776e61626c653a206e6577206f776e657220697320746865207a65726f206160008201527f6464726573730000000000000000000000000000000000000000000000000000602082015250565b6000612967602683612484565b91506129728261290b565b604082019050919050565b600060208201905081810360008301526129968161295a565b9050919050565b7f5265656e7472616e637947756172643a207265656e7472616e742063616c6c00600082015250565b60006129d3601f83612484565b91506129de8261299d565b602082019050919050565b60006020820190508181036000830152612a02816129c6565b9050919050565b7f4f776e61626c653a2063616c6c6572206973206e6f7420746865206f776e6572600082015250565b6000612a3f602083612484565b9150612a4a82612a09565b602082019050919050565b60006020820190508181036000830152612a6e81612a32565b9050919050565b7f4e487b7100000000000000000000000000000000000000000000000000000000600052603160045260246000fdfea2646970667358221220e6a2c800a3ff741d8b293f93d61e531653791b5c7052630efdb7ec86944ce94164736f6c634300080d0033",
  "linkReferences": {},
  "deployedLinkReferences": {}
}