{
  "_format": "hh-sol-artifact-1",
  "contractName": "NFTStaker",
  "sourceName": "src/backend/contracts/NFTStaker.sol",
  "abi": [
    {
      "inputs": [
        {
          "internalType": "address",
          "name": "nftAddress",
          "type": "address"
        }
      ],
      "stateMutability": "nonpayable",
      "type": "constructor"
    },
    {
      "anonymous": false,
      "inputs": [
        {
          "indexed": true,
          "internalType": "address",
          "name": "previousOwner",
          "type": "address"
        },
        {
          "indexed": true,
          "internalType": "address",
          "name": "newOwner",
          "type": "address"
        }
      ],
      "name": "OwnershipTransferred",
      "type": "event"
    },
    {
      "anonymous": false,
      "inputs": [
        {
          "indexed": false,
          "internalType": "uint256",
          "name": "tokenId",
          "type": "uint256"
        },
        {
          "indexed": false,
          "internalType": "uint256",
          "name": "timestamp",
          "type": "uint256"
        }
      ],
      "name": "StakeSuccessful",
      "type": "event"
    },
    {
      "anonymous": false,
      "inputs": [
        {
          "indexed": false,
          "internalType": "uint256",
          "name": "tokenId",
          "type": "uint256"
        },
        {
          "indexed": false,
          "internalType": "uint256",
          "name": "reward",
          "type": "uint256"
        }
      ],
      "name": "UnstakeSuccessful",
      "type": "event"
    },
    {
      "inputs": [],
      "name": "claimReward",
      "outputs": [],
      "stateMutability": "nonpayable",
      "type": "function"
    },
    {
      "inputs": [
        {
          "internalType": "address",
          "name": "_user",
          "type": "address"
        }
      ],
      "name": "getRewardFromActiveMission",
      "outputs": [
        {
          "internalType": "uint256",
          "name": "",
          "type": "uint256"
        }
      ],
      "stateMutability": "view",
      "type": "function"
    },
    {
      "inputs": [
        {
          "internalType": "address",
          "name": "_user",
          "type": "address"
        }
      ],
      "name": "getRewardToClaim",
      "outputs": [
        {
          "internalType": "uint256",
          "name": "",
          "type": "uint256"
        }
      ],
      "stateMutability": "view",
      "type": "function"
    },
    {
      "inputs": [
        {
          "internalType": "address",
          "name": "_user",
          "type": "address"
        }
      ],
      "name": "getStakedMissions",
      "outputs": [
        {
          "components": [
            {
              "internalType": "uint256",
              "name": "startTimestamp",
              "type": "uint256"
            },
            {
              "internalType": "uint256",
              "name": "duration",
              "type": "uint256"
            }
          ],
          "internalType": "struct NFTStaker.Mission[]",
          "name": "missions",
          "type": "tuple[]"
        }
      ],
      "stateMutability": "view",
      "type": "function"
    },
    {
      "inputs": [
        {
          "internalType": "address",
          "name": "_user",
          "type": "address"
        }
      ],
      "name": "getStakedTimestamps",
      "outputs": [
        {
          "internalType": "uint256[]",
          "name": "timestamps",
          "type": "uint256[]"
        }
      ],
      "stateMutability": "view",
      "type": "function"
    },
    {
      "inputs": [
        {
          "internalType": "address",
          "name": "_user",
          "type": "address"
        }
      ],
      "name": "getStakedTokens",
      "outputs": [
        {
          "internalType": "uint256[]",
          "name": "tokenIds",
          "type": "uint256[]"
        }
      ],
      "stateMutability": "view",
      "type": "function"
    },
    {
      "inputs": [],
      "name": "hoursForUnitReward",
      "outputs": [
        {
          "internalType": "uint256",
          "name": "",
          "type": "uint256"
        }
      ],
      "stateMutability": "view",
      "type": "function"
    },
    {
      "inputs": [],
      "name": "isMissionOngoing",
      "outputs": [
        {
          "internalType": "bool",
          "name": "",
          "type": "bool"
        }
      ],
      "stateMutability": "view",
      "type": "function"
    },
    {
      "inputs": [
        {
          "internalType": "uint256",
          "name": "_tokenId",
          "type": "uint256"
        }
      ],
      "name": "isTokenStaked",
      "outputs": [
        {
          "internalType": "bool",
          "name": "",
          "type": "bool"
        }
      ],
      "stateMutability": "view",
      "type": "function"
    },
    {
      "inputs": [
        {
          "internalType": "address",
          "name": "",
          "type": "address"
        },
        {
          "internalType": "address",
          "name": "",
          "type": "address"
        },
        {
          "internalType": "uint256",
          "name": "",
          "type": "uint256"
        },
        {
          "internalType": "bytes",
          "name": "",
          "type": "bytes"
        }
      ],
      "name": "onERC721Received",
      "outputs": [
        {
          "internalType": "bytes4",
          "name": "",
          "type": "bytes4"
        }
      ],
      "stateMutability": "nonpayable",
      "type": "function"
    },
    {
      "inputs": [],
      "name": "owner",
      "outputs": [
        {
          "internalType": "address",
          "name": "",
          "type": "address"
        }
      ],
      "stateMutability": "view",
      "type": "function"
    },
    {
      "inputs": [],
      "name": "parentNFT",
      "outputs": [
        {
          "internalType": "contract ERC721A",
          "name": "",
          "type": "address"
        }
      ],
      "stateMutability": "view",
      "type": "function"
    },
    {
      "inputs": [],
      "name": "renounceOwnership",
      "outputs": [],
      "stateMutability": "nonpayable",
      "type": "function"
    },
    {
      "inputs": [],
      "name": "rewardsToken",
      "outputs": [
        {
          "internalType": "contract ERC20",
          "name": "",
          "type": "address"
        }
      ],
      "stateMutability": "view",
      "type": "function"
    },
    {
      "inputs": [
        {
          "internalType": "uint256[]",
          "name": "_tokenIds",
          "type": "uint256[]"
        }
      ],
      "name": "sendAllInactiveToMission",
      "outputs": [],
      "stateMutability": "nonpayable",
      "type": "function"
    },
    {
      "inputs": [
        {
          "internalType": "uint256",
          "name": "_hoursForUnitReward",
          "type": "uint256"
        }
      ],
      "name": "setHoursForUnitReward",
      "outputs": [],
      "stateMutability": "nonpayable",
      "type": "function"
    },
    {
      "inputs": [
        {
          "internalType": "address",
          "name": "_newOwner",
          "type": "address"
        },
        {
          "internalType": "address",
          "name": "_tokenAddress",
          "type": "address"
        }
      ],
      "name": "setOwnerAndTokenAddress",
      "outputs": [],
      "stateMutability": "nonpayable",
      "type": "function"
    },
    {
      "inputs": [
        {
          "internalType": "uint256",
          "name": "_tokenId",
          "type": "uint256"
        }
      ],
      "name": "stake",
      "outputs": [],
      "stateMutability": "nonpayable",
      "type": "function"
    },
    {
      "inputs": [
        {
          "internalType": "uint256",
          "name": "_duration",
          "type": "uint256"
        }
      ],
      "name": "startMission",
      "outputs": [],
      "stateMutability": "nonpayable",
      "type": "function"
    },
    {
      "inputs": [
        {
          "internalType": "address",
          "name": "newOwner",
          "type": "address"
        }
      ],
      "name": "transferOwnership",
      "outputs": [],
      "stateMutability": "nonpayable",
      "type": "function"
    },
    {
      "inputs": [
        {
          "internalType": "uint256",
          "name": "_tokenId",
          "type": "uint256"
        }
      ],
      "name": "unstake",
      "outputs": [],
      "stateMutability": "nonpayable",
      "type": "function"
    }
  ],
  "bytecode": "0x60806040523480156200001157600080fd5b50604051620038f4380380620038f48339818101604052810190620000379190620001e6565b60016000819055506200005f62000053620000ae60201b60201c565b620000b660201b60201c565b80600260006101000a81548173ffffffffffffffffffffffffffffffffffffffff021916908373ffffffffffffffffffffffffffffffffffffffff160217905550600480819055505062000218565b600033905090565b6000600160009054906101000a900473ffffffffffffffffffffffffffffffffffffffff16905081600160006101000a81548173ffffffffffffffffffffffffffffffffffffffff021916908373ffffffffffffffffffffffffffffffffffffffff1602179055508173ffffffffffffffffffffffffffffffffffffffff168173ffffffffffffffffffffffffffffffffffffffff167f8be0079c531659141344cd1fd0a4f28419497f9722a3daafe3b4186f6b6457e060405160405180910390a35050565b600080fd5b600073ffffffffffffffffffffffffffffffffffffffff82169050919050565b6000620001ae8262000181565b9050919050565b620001c081620001a1565b8114620001cc57600080fd5b50565b600081519050620001e081620001b5565b92915050565b600060208284031215620001ff57620001fe6200017c565b5b60006200020f84828501620001cf565b91505092915050565b6136cc80620002286000396000f3fe608060405234801561001057600080fd5b50600436106101375760003560e01c80638da5cb5b116100b8578063b8e33fb21161007c578063b8e33fb214610324578063d1af0c7d14610342578063e6d7d9d114610360578063f0a524241461037e578063f2fde38b146103ae578063fb1ab0a9146103ca57610137565b80638da5cb5b14610280578063a04ebd4b1461029e578063a694fc3a146102ce578063a7c1e29a146102ea578063b88a802f1461031a57610137565b806363c28db1116100ff57806363c28db1146101de578063647fb46c1461020e57806367eb6add1461022a578063715018a614610246578063775163f11461025057610137565b806307ec14221461013c578063150b7a021461015857806324d0b0a5146101885780632e17de78146101a65780633a7055f9146101c2575b600080fd5b61015660048036038101906101519190612896565b6103fa565b005b610172600480360381019061016d9190612a67565b61044f565b60405161017f9190612b25565b60405180910390f35b610190610463565b60405161019d9190612b4f565b60405180910390f35b6101c060048036038101906101bb9190612896565b610469565b005b6101dc60048036038101906101d79190612896565b61091d565b005b6101f860048036038101906101f39190612b6a565b610949565b6040516102059190612c55565b60405180910390f35b61022860048036038101906102239190612c77565b6109e3565b005b610244600480360381019061023f9190612d7f565b610a39565b005b61024e610e7d565b005b61026a60048036038101906102659190612b6a565b610e91565b6040516102779190612b4f565b60405180910390f35b610288611129565b6040516102959190612dd7565b60405180910390f35b6102b860048036038101906102b39190612b6a565b611153565b6040516102c59190612c55565b60405180910390f35b6102e860048036038101906102e39190612896565b6111ed565b005b61030460048036038101906102ff9190612b6a565b6114eb565b6040516103119190612ed0565b60405180910390f35b6103226115a0565b005b61032c61187c565b6040516103399190612f51565b60405180910390f35b61034a6118a2565b6040516103579190612f8d565b60405180910390f35b6103686118c8565b6040516103759190612fc3565b60405180910390f35b61039860048036038101906103939190612896565b6118f7565b6040516103a59190612fc3565b60405180910390f35b6103c860048036038101906103c39190612b6a565b6119dc565b005b6103e460048036038101906103df9190612b6a565b611a5f565b6040516103f19190612b4f565b60405180910390f35b610402611c4b565b60008111610445576040517f08c379a000000000000000000000000000000000000000000000000000000000815260040161043c9061303b565b60405180910390fd5b8060048190555050565b600063150b7a0260e01b9050949350505050565b60045481565b610471611cc9565b6000600760003373ffffffffffffffffffffffffffffffffffffffff1673ffffffffffffffffffffffffffffffffffffffff1681526020019081526020016000206040518060a00160405290816000820180548060200260200160405190810160405280929190818152602001828054801561050c57602002820191906000526020600020905b8154815260200190600101908083116104f8575b505050505081526020016001820180548060200260200160405190810160405280929190818152602001828054801561056457602002820191906000526020600020905b815481526020019060010190808311610550575b5050505050815260200160028201805480602002602001604051908101604052809291908181526020016000905b828210156105d857838290600052602060002090600202016040518060400160405290816000820154815260200160018201548152505081526020019060010190610592565b505050508152602001600382015481526020016004820180548060200260200160405190810160405280929190818152602001828054801561065e57602002820191906000526020600020906000905b82829054906101000a900460ff161515815260200190600101906020826000010492830192600103820291508084116106285790505b50505050508152505090506000806106768433611d18565b91509150806106ba576040517f08c379a00000000000000000000000000000000000000000000000000000000081526004016106b1906130a7565b60405180910390fd5b60006106c68333611f81565b90506000610719856040015185815181106106e4576106e36130c7565b5b60200260200101516000015186604001518681518110610707576107066130c7565b5b60200260200101516020015142612242565b9050600260009054906101000a900473ffffffffffffffffffffffffffffffffffffffff1673ffffffffffffffffffffffffffffffffffffffff166342842e0e3033896040518463ffffffff1660e01b815260040161077a939291906130f6565b600060405180830381600087803b15801561079457600080fd5b505af11580156107a8573d6000803e3d6000fd5b505050508080156107db575060001515856080015185815181106107cf576107ce6130c7565b5b60200260200101511515145b156108b9576001600760003373ffffffffffffffffffffffffffffffffffffffff1673ffffffffffffffffffffffffffffffffffffffff1681526020019081526020016000206004018581548110610836576108356130c7565b5b90600052602060002090602091828204019190066101000a81548160ff02191690831515021790555081600760003373ffffffffffffffffffffffffffffffffffffffff1673ffffffffffffffffffffffffffffffffffffffff16815260200190815260200160002060030160008282546108b1919061315c565b925050819055505b6108d48460018760000151516108cf91906131b2565b61225b565b7f97cc56283430ac8692d29c7522a69fa6c2bde7e47d781be6b58b034d80bc282886836040516109059291906131e6565b60405180910390a1505050505061091a612774565b50565b610925611c4b565b42600560000181905550610e108161093d919061320f565b60056001018190555050565b6060600760008373ffffffffffffffffffffffffffffffffffffffff1673ffffffffffffffffffffffffffffffffffffffff1681526020019081526020016000206000018054806020026020016040519081016040528092919081815260200182805480156109d757602002820191906000526020600020905b8154815260200190600101908083116109c3575b50505050509050919050565b6109eb611c4b565b80600360006101000a81548173ffffffffffffffffffffffffffffffffffffffff021916908373ffffffffffffffffffffffffffffffffffffffff160217905550610a358261277e565b5050565b610a41611cc9565b610a496118c8565b610a88576040517f08c379a0000000000000000000000000000000000000000000000000000000008152600401610a7f906132b5565b60405180910390fd5b600081519050600042905060005b82811015610e6f57600080610ac5868481518110610ab757610ab66130c7565b5b602002602001015133611d18565b9150915080610b09576040517f08c379a0000000000000000000000000000000000000000000000000000000008152600401610b00906130a7565b60405180910390fd5b610bde600760003373ffffffffffffffffffffffffffffffffffffffff1673ffffffffffffffffffffffffffffffffffffffff1681526020019081526020016000206002018381548110610b6057610b5f6130c7565b5b906000526020600020906002020160000154600760003373ffffffffffffffffffffffffffffffffffffffff1673ffffffffffffffffffffffffffffffffffffffff1681526020019081526020016000206002018481548110610bc657610bc56130c7565b5b90600052602060002090600202016001015486612242565b610c1d576040517f08c379a0000000000000000000000000000000000000000000000000000000008152600401610c1490613347565b60405180910390fd5b6000610c298333611f81565b905060001515600760003373ffffffffffffffffffffffffffffffffffffffff1673ffffffffffffffffffffffffffffffffffffffff1681526020019081526020016000206004018481548110610c8357610c826130c7565b5b90600052602060002090602091828204019190069054906101000a900460ff16151503610d045780600760003373ffffffffffffffffffffffffffffffffffffffff1673ffffffffffffffffffffffffffffffffffffffff1681526020019081526020016000206003016000828254610cfc919061315c565b925050819055505b84600760003373ffffffffffffffffffffffffffffffffffffffff1673ffffffffffffffffffffffffffffffffffffffff1681526020019081526020016000206001018481548110610d5957610d586130c7565b5b90600052602060002001819055506005600760003373ffffffffffffffffffffffffffffffffffffffff1673ffffffffffffffffffffffffffffffffffffffff1681526020019081526020016000206002018481548110610dbd57610dbc6130c7565b5b906000526020600020906002020160008201548160000155600182015481600101559050506000600760003373ffffffffffffffffffffffffffffffffffffffff1673ffffffffffffffffffffffffffffffffffffffff1681526020019081526020016000206004018481548110610e3857610e376130c7565b5b90600052602060002090602091828204019190066101000a81548160ff021916908315150217905550836001019350505050610a96565b505050610e7a612774565b50565b610e85611c4b565b610e8f600061277e565b565b600080600760008473ffffffffffffffffffffffffffffffffffffffff1673ffffffffffffffffffffffffffffffffffffffff1681526020019081526020016000206040518060a001604052908160008201805480602002602001604051908101604052809291908181526020018280548015610f2d57602002820191906000526020600020905b815481526020019060010190808311610f19575b5050505050815260200160018201805480602002602001604051908101604052809291908181526020018280548015610f8557602002820191906000526020600020905b815481526020019060010190808311610f71575b5050505050815260200160028201805480602002602001604051908101604052809291908181526020016000905b82821015610ff957838290600052602060002090600202016040518060400160405290816000820154815260200160018201548152505081526020019060010190610fb3565b505050508152602001600382015481526020016004820180548060200260200160405190810160405280929190818152602001828054801561107f57602002820191906000526020600020906000905b82829054906101000a900460ff161515815260200190600101906020826000010492830192600103820291508084116110495790505b505050505081525050905060008061109685610949565b51905060005b8181101561111d57836080015181815181106110bb576110ba6130c7565b5b602002602001015161111257600454610e10856040015183815181106110e4576110e36130c7565b5b6020026020010151602001516110fa9190613396565b6111049190613396565b8361110f919061315c565b92505b80600101905061109c565b50819350505050919050565b6000600160009054906101000a900473ffffffffffffffffffffffffffffffffffffffff16905090565b6060600760008373ffffffffffffffffffffffffffffffffffffffff1673ffffffffffffffffffffffffffffffffffffffff1681526020019081526020016000206001018054806020026020016040519081016040528092919081815260200182805480156111e157602002820191906000526020600020905b8154815260200190600101908083116111cd575b50505050509050919050565b6111f5611cc9565b6111fd6118c8565b61123c576040517f08c379a0000000000000000000000000000000000000000000000000000000008152600401611233906132b5565b60405180910390fd5b600760003373ffffffffffffffffffffffffffffffffffffffff1673ffffffffffffffffffffffffffffffffffffffff168152602001908152602001600020600001819080600181540180825580915050600190039060005260206000200160009091909190915055600760003373ffffffffffffffffffffffffffffffffffffffff1673ffffffffffffffffffffffffffffffffffffffff168152602001908152602001600020600101429080600181540180825580915050600190039060005260206000200160009091909190915055600760003373ffffffffffffffffffffffffffffffffffffffff1673ffffffffffffffffffffffffffffffffffffffff1681526020019081526020016000206002016005908060018154018082558091505060019003906000526020600020906002020160009091909190915060008201548160000155600182015481600101555050600760003373ffffffffffffffffffffffffffffffffffffffff1673ffffffffffffffffffffffffffffffffffffffff168152602001908152602001600020600401600090806001815401808255809150506001900390600052602060002090602091828204019190069091909190916101000a81548160ff021916908315150217905550600260009054906101000a900473ffffffffffffffffffffffffffffffffffffffff1673ffffffffffffffffffffffffffffffffffffffff166342842e0e3330846040518463ffffffff1660e01b8152600401611475939291906130f6565b600060405180830381600087803b15801561148f57600080fd5b505af11580156114a3573d6000803e3d6000fd5b505050507fb9a8e9862e9f26d54fc878291fa9354d1629940f2a39517bd62522ec47aec10581426040516114d89291906131e6565b60405180910390a16114e8612774565b50565b6060600760008373ffffffffffffffffffffffffffffffffffffffff1673ffffffffffffffffffffffffffffffffffffffff168152602001908152602001600020600201805480602002602001604051908101604052809291908181526020016000905b828210156115955783829060005260206000209060020201604051806040016040529081600082015481526020016001820154815250508152602001906001019061154f565b505050509050919050565b60006115ab33611a5f565b9050600081116115f0576040517f08c379a00000000000000000000000000000000000000000000000000000000081526004016115e790613413565b60405180910390fd5b60011515600360009054906101000a900473ffffffffffffffffffffffffffffffffffffffff1673ffffffffffffffffffffffffffffffffffffffff1663a9059cbb33846040518363ffffffff1660e01b8152600401611651929190613433565b6020604051808303816000875af1158015611670573d6000803e3d6000fd5b505050506040513d601f19601f820116820180604052508101906116949190613488565b1515036118745760006116a633610949565b519050600042905060005b82811015611824576000611790600760003373ffffffffffffffffffffffffffffffffffffffff1673ffffffffffffffffffffffffffffffffffffffff1681526020019081526020016000206002018381548110611712576117116130c7565b5b906000526020600020906002020160000154600760003373ffffffffffffffffffffffffffffffffffffffff1673ffffffffffffffffffffffffffffffffffffffff1681526020019081526020016000206002018481548110611778576117776130c7565b5b90600052602060002090600202016001015485612242565b90508015611818576001600760003373ffffffffffffffffffffffffffffffffffffffff1673ffffffffffffffffffffffffffffffffffffffff16815260200190815260200160002060040183815481106117ee576117ed6130c7565b5b90600052602060002090602091828204019190066101000a81548160ff0219169083151502179055505b816001019150506116b1565b506000600760003373ffffffffffffffffffffffffffffffffffffffff1673ffffffffffffffffffffffffffffffffffffffff168152602001908152602001600020600301819055505050611879565b600080fd5b50565b600260009054906101000a900473ffffffffffffffffffffffffffffffffffffffff1681565b600360009054906101000a900473ffffffffffffffffffffffffffffffffffffffff1681565b6000806005600001541180156118f25750600560010154600560000154426118f091906131b2565b105b905090565b600080600760003373ffffffffffffffffffffffffffffffffffffffff1673ffffffffffffffffffffffffffffffffffffffff16815260200190815260200160002060000180549050905060005b818110156119d05783600760003373ffffffffffffffffffffffffffffffffffffffff1673ffffffffffffffffffffffffffffffffffffffff16815260200190815260200160002060000182815481106119a2576119a16130c7565b5b9060005260206000200154036119bd576001925050506119d7565b80806119c8906134b5565b915050611945565b5060009150505b919050565b6119e4611c4b565b600073ffffffffffffffffffffffffffffffffffffffff168173ffffffffffffffffffffffffffffffffffffffff1603611a53576040517f08c379a0000000000000000000000000000000000000000000000000000000008152600401611a4a9061356f565b60405180910390fd5b611a5c8161277e565b50565b600080600760008473ffffffffffffffffffffffffffffffffffffffff1673ffffffffffffffffffffffffffffffffffffffff1681526020019081526020016000206003015490506000611ab284610949565b519050600042905060005b82811015611c3f57600760008773ffffffffffffffffffffffffffffffffffffffff1673ffffffffffffffffffffffffffffffffffffffff1681526020019081526020016000206004018181548110611b1957611b186130c7565b5b90600052602060002090602091828204019190069054906101000a900460ff16158015611c175750611c16600760008873ffffffffffffffffffffffffffffffffffffffff1673ffffffffffffffffffffffffffffffffffffffff1681526020019081526020016000206002018281548110611b9857611b976130c7565b5b906000526020600020906002020160000154600760008973ffffffffffffffffffffffffffffffffffffffff1673ffffffffffffffffffffffffffffffffffffffff1681526020019081526020016000206002018381548110611bfe57611bfd6130c7565b5b90600052602060002090600202016001015484612242565b5b15611c3457611c268187611f81565b84611c31919061315c565b93505b806001019050611abd565b50829350505050919050565b611c53612844565b73ffffffffffffffffffffffffffffffffffffffff16611c71611129565b73ffffffffffffffffffffffffffffffffffffffff1614611cc7576040517f08c379a0000000000000000000000000000000000000000000000000000000008152600401611cbe906135db565b60405180910390fd5b565b600260005403611d0e576040517f08c379a0000000000000000000000000000000000000000000000000000000008152600401611d0590613647565b60405180910390fd5b6002600081905550565b6000806000600760008573ffffffffffffffffffffffffffffffffffffffff1673ffffffffffffffffffffffffffffffffffffffff1681526020019081526020016000206040518060a001604052908160008201805480602002602001604051908101604052809291908181526020018280548015611db657602002820191906000526020600020905b815481526020019060010190808311611da2575b5050505050815260200160018201805480602002602001604051908101604052809291908181526020018280548015611e0e57602002820191906000526020600020905b815481526020019060010190808311611dfa575b5050505050815260200160028201805480602002602001604051908101604052809291908181526020016000905b82821015611e8257838290600052602060002090600202016040518060400160405290816000820154815260200160018201548152505081526020019060010190611e3c565b5050505081526020016003820154815260200160048201805480602002602001604051908101604052809291908181526020018280548015611f0857602002820191906000526020600020906000905b82829054906101000a900460ff16151581526020019060010190602082600001049283019260010382029150808411611ed25790505b50505050508152505090506000806000836000015151905060005b81811015611f6f578885600001518281518110611f4357611f426130c7565b5b602002602001015103611f5c5780935060019250611f6f565b8080611f67906134b5565b915050611f23565b50828295509550505050509250929050565b600080600760008473ffffffffffffffffffffffffffffffffffffffff1673ffffffffffffffffffffffffffffffffffffffff1681526020019081526020016000206040518060a00160405290816000820180548060200260200160405190810160405280929190818152602001828054801561201d57602002820191906000526020600020905b815481526020019060010190808311612009575b505050505081526020016001820180548060200260200160405190810160405280929190818152602001828054801561207557602002820191906000526020600020905b815481526020019060010190808311612061575b5050505050815260200160028201805480602002602001604051908101604052809291908181526020016000905b828210156120e9578382906000526020600020906002020160405180604001604052908160008201548152602001600182015481525050815260200190600101906120a3565b505050508152602001600382015481526020016004820180548060200260200160405190810160405280929190818152602001828054801561216f57602002820191906000526020600020906000905b82829054906101000a900460ff161515815260200190600101906020826000010492830192600103820291508084116121395790505b5050505050815250509050600081604001518581518110612193576121926130c7565b5b602002602001015160200151826040015186815181106121b6576121b56130c7565b5b6020026020010151600001516121cc919061315c565b905060008142116121dd57426121df565b815b90506000836020015187815181106121fa576121f96130c7565b5b60200260200101518261220d91906131b2565b90506000610e108261221f9190613396565b90506000600454826122319190613396565b905080965050505050505092915050565b6000818385612251919061315c565b1090509392505050565b600760003373ffffffffffffffffffffffffffffffffffffffff1673ffffffffffffffffffffffffffffffffffffffff16815260200190815260200160002060010181815481106122af576122ae6130c7565b5b9060005260206000200154600760003373ffffffffffffffffffffffffffffffffffffffff1673ffffffffffffffffffffffffffffffffffffffff168152602001908152602001600020600101838154811061230e5761230d6130c7565b5b9060005260206000200181905550600760003373ffffffffffffffffffffffffffffffffffffffff1673ffffffffffffffffffffffffffffffffffffffff16815260200190815260200160002060010180548061236e5761236d613667565b5b60019003818190600052602060002001600090559055600760003373ffffffffffffffffffffffffffffffffffffffff1673ffffffffffffffffffffffffffffffffffffffff16815260200190815260200160002060000181815481106123d8576123d76130c7565b5b9060005260206000200154600760003373ffffffffffffffffffffffffffffffffffffffff1673ffffffffffffffffffffffffffffffffffffffff1681526020019081526020016000206000018381548110612437576124366130c7565b5b9060005260206000200181905550600760003373ffffffffffffffffffffffffffffffffffffffff1673ffffffffffffffffffffffffffffffffffffffff16815260200190815260200160002060000180548061249757612496613667565b5b60019003818190600052602060002001600090559055600760003373ffffffffffffffffffffffffffffffffffffffff1673ffffffffffffffffffffffffffffffffffffffff1681526020019081526020016000206002018181548110612501576125006130c7565b5b9060005260206000209060020201600760003373ffffffffffffffffffffffffffffffffffffffff1673ffffffffffffffffffffffffffffffffffffffff1681526020019081526020016000206002018381548110612563576125626130c7565b5b90600052602060002090600202016000820154816000015560018201548160010155905050600760003373ffffffffffffffffffffffffffffffffffffffff1673ffffffffffffffffffffffffffffffffffffffff1681526020019081526020016000206002018054806125da576125d9613667565b5b6001900381819060005260206000209060020201600080820160009055600182016000905550509055600760003373ffffffffffffffffffffffffffffffffffffffff1673ffffffffffffffffffffffffffffffffffffffff1681526020019081526020016000206004018181548110612657576126566130c7565b5b90600052602060002090602091828204019190069054906101000a900460ff16600760003373ffffffffffffffffffffffffffffffffffffffff1673ffffffffffffffffffffffffffffffffffffffff16815260200190815260200160002060040183815481106126cb576126ca6130c7565b5b90600052602060002090602091828204019190066101000a81548160ff021916908315150217905550600760003373ffffffffffffffffffffffffffffffffffffffff1673ffffffffffffffffffffffffffffffffffffffff16815260200190815260200160002060040180548061274657612745613667565b5b60019003818190600052602060002090602091828204019190066101000a81549060ff021916905590555050565b6001600081905550565b6000600160009054906101000a900473ffffffffffffffffffffffffffffffffffffffff16905081600160006101000a81548173ffffffffffffffffffffffffffffffffffffffff021916908373ffffffffffffffffffffffffffffffffffffffff1602179055508173ffffffffffffffffffffffffffffffffffffffff168173ffffffffffffffffffffffffffffffffffffffff167f8be0079c531659141344cd1fd0a4f28419497f9722a3daafe3b4186f6b6457e060405160405180910390a35050565b600033905090565b6000604051905090565b600080fd5b600080fd5b6000819050919050565b61287381612860565b811461287e57600080fd5b50565b6000813590506128908161286a565b92915050565b6000602082840312156128ac576128ab612856565b5b60006128ba84828501612881565b91505092915050565b600073ffffffffffffffffffffffffffffffffffffffff82169050919050565b60006128ee826128c3565b9050919050565b6128fe816128e3565b811461290957600080fd5b50565b60008135905061291b816128f5565b92915050565b600080fd5b600080fd5b6000601f19601f8301169050919050565b7f4e487b7100000000000000000000000000000000000000000000000000000000600052604160045260246000fd5b6129748261292b565b810181811067ffffffffffffffff821117156129935761299261293c565b5b80604052505050565b60006129a661284c565b90506129b2828261296b565b919050565b600067ffffffffffffffff8211156129d2576129d161293c565b5b6129db8261292b565b9050602081019050919050565b82818337600083830152505050565b6000612a0a612a05846129b7565b61299c565b905082815260208101848484011115612a2657612a25612926565b5b612a318482856129e8565b509392505050565b600082601f830112612a4e57612a4d612921565b5b8135612a5e8482602086016129f7565b91505092915050565b60008060008060808587031215612a8157612a80612856565b5b6000612a8f8782880161290c565b9450506020612aa08782880161290c565b9350506040612ab187828801612881565b925050606085013567ffffffffffffffff811115612ad257612ad161285b565b5b612ade87828801612a39565b91505092959194509250565b60007fffffffff0000000000000000000000000000000000000000000000000000000082169050919050565b612b1f81612aea565b82525050565b6000602082019050612b3a6000830184612b16565b92915050565b612b4981612860565b82525050565b6000602082019050612b646000830184612b40565b92915050565b600060208284031215612b8057612b7f612856565b5b6000612b8e8482850161290c565b91505092915050565b600081519050919050565b600082825260208201905092915050565b6000819050602082019050919050565b612bcc81612860565b82525050565b6000612bde8383612bc3565b60208301905092915050565b6000602082019050919050565b6000612c0282612b97565b612c0c8185612ba2565b9350612c1783612bb3565b8060005b83811015612c48578151612c2f8882612bd2565b9750612c3a83612bea565b925050600181019050612c1b565b5085935050505092915050565b60006020820190508181036000830152612c6f8184612bf7565b905092915050565b60008060408385031215612c8e57612c8d612856565b5b6000612c9c8582860161290c565b9250506020612cad8582860161290c565b9150509250929050565b600067ffffffffffffffff821115612cd257612cd161293c565b5b602082029050602081019050919050565b600080fd5b6000612cfb612cf684612cb7565b61299c565b90508083825260208201905060208402830185811115612d1e57612d1d612ce3565b5b835b81811015612d475780612d338882612881565b845260208401935050602081019050612d20565b5050509392505050565b600082601f830112612d6657612d65612921565b5b8135612d76848260208601612ce8565b91505092915050565b600060208284031215612d9557612d94612856565b5b600082013567ffffffffffffffff811115612db357612db261285b565b5b612dbf84828501612d51565b91505092915050565b612dd1816128e3565b82525050565b6000602082019050612dec6000830184612dc8565b92915050565b600081519050919050565b600082825260208201905092915050565b6000819050602082019050919050565b604082016000820151612e346000850182612bc3565b506020820151612e476020850182612bc3565b50505050565b6000612e598383612e1e565b60408301905092915050565b6000602082019050919050565b6000612e7d82612df2565b612e878185612dfd565b9350612e9283612e0e565b8060005b83811015612ec3578151612eaa8882612e4d565b9750612eb583612e65565b925050600181019050612e96565b5085935050505092915050565b60006020820190508181036000830152612eea8184612e72565b905092915050565b6000819050919050565b6000612f17612f12612f0d846128c3565b612ef2565b6128c3565b9050919050565b6000612f2982612efc565b9050919050565b6000612f3b82612f1e565b9050919050565b612f4b81612f30565b82525050565b6000602082019050612f666000830184612f42565b92915050565b6000612f7782612f1e565b9050919050565b612f8781612f6c565b82525050565b6000602082019050612fa26000830184612f7e565b92915050565b60008115159050919050565b612fbd81612fa8565b82525050565b6000602082019050612fd86000830184612fb4565b92915050565b600082825260208201905092915050565b7f43616e27742073657420746f2030000000000000000000000000000000000000600082015250565b6000613025600e83612fde565b915061303082612fef565b602082019050919050565b6000602082019050818103600083015261305481613018565b9050919050565b7f496e646578206e6f7420666f756e6420666f722074686973207374616b65722e600082015250565b6000613091602083612fde565b915061309c8261305b565b602082019050919050565b600060208201905081810360008301526130c081613084565b9050919050565b7f4e487b7100000000000000000000000000000000000000000000000000000000600052603260045260246000fd5b600060608201905061310b6000830186612dc8565b6131186020830185612dc8565b6131256040830184612b40565b949350505050565b7f4e487b7100000000000000000000000000000000000000000000000000000000600052601160045260246000fd5b600061316782612860565b915061317283612860565b9250827fffffffffffffffffffffffffffffffffffffffffffffffffffffffffffffffff038211156131a7576131a661312d565b5b828201905092915050565b60006131bd82612860565b91506131c883612860565b9250828210156131db576131da61312d565b5b828203905092915050565b60006040820190506131fb6000830185612b40565b6132086020830184612b40565b9392505050565b600061321a82612860565b915061322583612860565b9250817fffffffffffffffffffffffffffffffffffffffffffffffffffffffffffffffff048311821515161561325e5761325d61312d565b5b828202905092915050565b7f5468657265206973206e6f206f6e676f696e67206d697373696f6e2100000000600082015250565b600061329f601c83612fde565b91506132aa82613269565b602082019050919050565b600060208201905081810360008301526132ce81613292565b9050919050565b7f546869732047656c61746f206973207374696c6c206f6e20616e206f6e676f6960008201527f6e67206d697373696f6e21000000000000000000000000000000000000000000602082015250565b6000613331602b83612fde565b915061333c826132d5565b604082019050919050565b6000602082019050818103600083015261336081613324565b9050919050565b7f4e487b7100000000000000000000000000000000000000000000000000000000600052601260045260246000fd5b60006133a182612860565b91506133ac83612860565b9250826133bc576133bb613367565b5b828204905092915050565b7f4e6f20746f6b656e7320746f20636c61696d2e00000000000000000000000000600082015250565b60006133fd601383612fde565b9150613408826133c7565b602082019050919050565b6000602082019050818103600083015261342c816133f0565b9050919050565b60006040820190506134486000830185612dc8565b6134556020830184612b40565b9392505050565b61346581612fa8565b811461347057600080fd5b50565b6000815190506134828161345c565b92915050565b60006020828403121561349e5761349d612856565b5b60006134ac84828501613473565b91505092915050565b60006134c082612860565b91507fffffffffffffffffffffffffffffffffffffffffffffffffffffffffffffffff82036134f2576134f161312d565b5b600182019050919050565b7f4f776e61626c653a206e6577206f776e657220697320746865207a65726f206160008201527f6464726573730000000000000000000000000000000000000000000000000000602082015250565b6000613559602683612fde565b9150613564826134fd565b604082019050919050565b600060208201905081810360008301526135888161354c565b9050919050565b7f4f776e61626c653a2063616c6c6572206973206e6f7420746865206f776e6572600082015250565b60006135c5602083612fde565b91506135d08261358f565b602082019050919050565b600060208201905081810360008301526135f4816135b8565b9050919050565b7f5265656e7472616e637947756172643a207265656e7472616e742063616c6c00600082015250565b6000613631601f83612fde565b915061363c826135fb565b602082019050919050565b6000602082019050818103600083015261366081613624565b9050919050565b7f4e487b7100000000000000000000000000000000000000000000000000000000600052603160045260246000fdfea264697066735822122082aff852b0410327e2e3e24e7d37f02a51574161f31f80b7b629ad4a58c230be64736f6c634300080d0033",
  "linkReferences": {},
  "deployedLinkReferences": {}
}