{
  "_format": "hh-sol-artifact-1",
  "contractName": "Quirkies",
  "sourceName": "src/backend/contracts/Quirkies.sol",
  "abi": [
    {
      "inputs": [],
      "stateMutability": "nonpayable",
      "type": "constructor"
    },
    {
      "anonymous": false,
      "inputs": [
        {
          "indexed": true,
          "internalType": "address",
          "name": "owner",
          "type": "address"
        },
        {
          "indexed": true,
          "internalType": "address",
          "name": "approved",
          "type": "address"
        },
        {
          "indexed": true,
          "internalType": "uint256",
          "name": "tokenId",
          "type": "uint256"
        }
      ],
      "name": "Approval",
      "type": "event"
    },
    {
      "anonymous": false,
      "inputs": [
        {
          "indexed": true,
          "internalType": "address",
          "name": "owner",
          "type": "address"
        },
        {
          "indexed": true,
          "internalType": "address",
          "name": "operator",
          "type": "address"
        },
        {
          "indexed": false,
          "internalType": "bool",
          "name": "approved",
          "type": "bool"
        }
      ],
      "name": "ApprovalForAll",
      "type": "event"
    },
    {
      "anonymous": false,
      "inputs": [
        {
          "indexed": true,
          "internalType": "address",
          "name": "previousOwner",
          "type": "address"
        },
        {
          "indexed": true,
          "internalType": "address",
          "name": "newOwner",
          "type": "address"
        }
      ],
      "name": "OwnershipTransferred",
      "type": "event"
    },
    {
      "anonymous": false,
      "inputs": [
        {
          "indexed": true,
          "internalType": "address",
          "name": "from",
          "type": "address"
        },
        {
          "indexed": true,
          "internalType": "address",
          "name": "to",
          "type": "address"
        },
        {
          "indexed": true,
          "internalType": "uint256",
          "name": "tokenId",
          "type": "uint256"
        }
      ],
      "name": "Transfer",
      "type": "event"
    },
    {
      "inputs": [
        {
          "internalType": "address",
          "name": "to",
          "type": "address"
        },
        {
          "internalType": "uint256",
          "name": "tokenId",
          "type": "uint256"
        }
      ],
      "name": "approve",
      "outputs": [],
      "stateMutability": "nonpayable",
      "type": "function"
    },
    {
      "inputs": [
        {
          "internalType": "address",
          "name": "owner",
          "type": "address"
        }
      ],
      "name": "balanceOf",
      "outputs": [
        {
          "internalType": "uint256",
          "name": "",
          "type": "uint256"
        }
      ],
      "stateMutability": "view",
      "type": "function"
    },
    {
      "inputs": [],
      "name": "baseURI",
      "outputs": [
        {
          "internalType": "string",
          "name": "",
          "type": "string"
        }
      ],
      "stateMutability": "view",
      "type": "function"
    },
    {
      "inputs": [],
      "name": "capPublic",
      "outputs": [
        {
          "internalType": "uint256",
          "name": "",
          "type": "uint256"
        }
      ],
      "stateMutability": "view",
      "type": "function"
    },
    {
      "inputs": [],
      "name": "capWhitelist",
      "outputs": [
        {
          "internalType": "uint256",
          "name": "",
          "type": "uint256"
        }
      ],
      "stateMutability": "view",
      "type": "function"
    },
    {
      "inputs": [],
      "name": "contractURI",
      "outputs": [
        {
          "internalType": "string",
          "name": "",
          "type": "string"
        }
      ],
      "stateMutability": "view",
      "type": "function"
    },
    {
      "inputs": [
        {
          "internalType": "uint256",
          "name": "tokenId",
          "type": "uint256"
        }
      ],
      "name": "getApproved",
      "outputs": [
        {
          "internalType": "address",
          "name": "",
          "type": "address"
        }
      ],
      "stateMutability": "view",
      "type": "function"
    },
    {
      "inputs": [
        {
          "internalType": "address",
          "name": "owner",
          "type": "address"
        },
        {
          "internalType": "address",
          "name": "operator",
          "type": "address"
        }
      ],
      "name": "isApprovedForAll",
      "outputs": [
        {
          "internalType": "bool",
          "name": "",
          "type": "bool"
        }
      ],
      "stateMutability": "view",
      "type": "function"
    },
    {
      "inputs": [
        {
          "internalType": "uint256",
          "name": "_amount",
          "type": "uint256"
        }
      ],
      "name": "mint",
      "outputs": [],
      "stateMutability": "payable",
      "type": "function"
    },
    {
      "inputs": [
        {
          "internalType": "uint256",
          "name": "_amount",
          "type": "uint256"
        }
      ],
      "name": "mintWhitelist",
      "outputs": [],
      "stateMutability": "payable",
      "type": "function"
    },
    {
      "inputs": [],
      "name": "name",
      "outputs": [
        {
          "internalType": "string",
          "name": "",
          "type": "string"
        }
      ],
      "stateMutability": "view",
      "type": "function"
    },
    {
      "inputs": [],
      "name": "nftLimit",
      "outputs": [
        {
          "internalType": "uint256",
          "name": "",
          "type": "uint256"
        }
      ],
      "stateMutability": "view",
      "type": "function"
    },
    {
      "inputs": [],
      "name": "nftPrice",
      "outputs": [
        {
          "internalType": "uint256",
          "name": "",
          "type": "uint256"
        }
      ],
      "stateMutability": "view",
      "type": "function"
    },
    {
      "inputs": [],
      "name": "owner",
      "outputs": [
        {
          "internalType": "address",
          "name": "",
          "type": "address"
        }
      ],
      "stateMutability": "view",
      "type": "function"
    },
    {
      "inputs": [
        {
          "internalType": "uint256",
          "name": "tokenId",
          "type": "uint256"
        }
      ],
      "name": "ownerOf",
      "outputs": [
        {
          "internalType": "address",
          "name": "",
          "type": "address"
        }
      ],
      "stateMutability": "view",
      "type": "function"
    },
    {
      "inputs": [
        {
          "internalType": "address",
          "name": "",
          "type": "address"
        }
      ],
      "name": "presaleAddresses",
      "outputs": [
        {
          "internalType": "uint256",
          "name": "",
          "type": "uint256"
        }
      ],
      "stateMutability": "view",
      "type": "function"
    },
    {
      "inputs": [],
      "name": "renounceOwnership",
      "outputs": [],
      "stateMutability": "nonpayable",
      "type": "function"
    },
    {
      "inputs": [
        {
          "internalType": "address[]",
          "name": "_tos",
          "type": "address[]"
        }
      ],
      "name": "reserve",
      "outputs": [],
      "stateMutability": "nonpayable",
      "type": "function"
    },
    {
      "inputs": [],
      "name": "reserved",
      "outputs": [
        {
          "internalType": "uint256",
          "name": "",
          "type": "uint256"
        }
      ],
      "stateMutability": "view",
      "type": "function"
    },
    {
      "inputs": [
        {
          "internalType": "address",
          "name": "from",
          "type": "address"
        },
        {
          "internalType": "address",
          "name": "to",
          "type": "address"
        },
        {
          "internalType": "uint256",
          "name": "tokenId",
          "type": "uint256"
        }
      ],
      "name": "safeTransferFrom",
      "outputs": [],
      "stateMutability": "nonpayable",
      "type": "function"
    },
    {
      "inputs": [
        {
          "internalType": "address",
          "name": "from",
          "type": "address"
        },
        {
          "internalType": "address",
          "name": "to",
          "type": "address"
        },
        {
          "internalType": "uint256",
          "name": "tokenId",
          "type": "uint256"
        },
        {
          "internalType": "bytes",
          "name": "data",
          "type": "bytes"
        }
      ],
      "name": "safeTransferFrom",
      "outputs": [],
      "stateMutability": "nonpayable",
      "type": "function"
    },
    {
      "inputs": [],
      "name": "salePublic",
      "outputs": [
        {
          "internalType": "bool",
          "name": "",
          "type": "bool"
        }
      ],
      "stateMutability": "view",
      "type": "function"
    },
    {
      "inputs": [],
      "name": "saleWhitelist",
      "outputs": [
        {
          "internalType": "bool",
          "name": "",
          "type": "bool"
        }
      ],
      "stateMutability": "view",
      "type": "function"
    },
    {
      "inputs": [
        {
          "internalType": "address",
          "name": "operator",
          "type": "address"
        },
        {
          "internalType": "bool",
          "name": "approved",
          "type": "bool"
        }
      ],
      "name": "setApprovalForAll",
      "outputs": [],
      "stateMutability": "nonpayable",
      "type": "function"
    },
    {
      "inputs": [
        {
          "internalType": "string",
          "name": "_newBaseURI",
          "type": "string"
        }
      ],
      "name": "setBaseURI",
      "outputs": [],
      "stateMutability": "nonpayable",
      "type": "function"
    },
    {
      "inputs": [
        {
          "internalType": "uint256",
          "name": "_nftLimit",
          "type": "uint256"
        }
      ],
      "name": "setNftLimit",
      "outputs": [],
      "stateMutability": "nonpayable",
      "type": "function"
    },
    {
      "inputs": [
        {
          "internalType": "uint256",
          "name": "_nftPrice",
          "type": "uint256"
        }
      ],
      "name": "setNftPrice",
      "outputs": [],
      "stateMutability": "nonpayable",
      "type": "function"
    },
    {
      "inputs": [
        {
          "internalType": "bytes4",
          "name": "interfaceId",
          "type": "bytes4"
        }
      ],
      "name": "supportsInterface",
      "outputs": [
        {
          "internalType": "bool",
          "name": "",
          "type": "bool"
        }
      ],
      "stateMutability": "view",
      "type": "function"
    },
    {
      "inputs": [],
      "name": "symbol",
      "outputs": [
        {
          "internalType": "string",
          "name": "",
          "type": "string"
        }
      ],
      "stateMutability": "view",
      "type": "function"
    },
    {
      "inputs": [],
      "name": "toggleSalePublic",
      "outputs": [],
      "stateMutability": "nonpayable",
      "type": "function"
    },
    {
      "inputs": [],
      "name": "toggleSaleWhitelist",
      "outputs": [],
      "stateMutability": "nonpayable",
      "type": "function"
    },
    {
      "inputs": [
        {
          "internalType": "uint256",
          "name": "tokenId",
          "type": "uint256"
        }
      ],
      "name": "tokenURI",
      "outputs": [
        {
          "internalType": "string",
          "name": "",
          "type": "string"
        }
      ],
      "stateMutability": "view",
      "type": "function"
    },
    {
      "inputs": [
        {
          "internalType": "address",
          "name": "_owner",
          "type": "address"
        }
      ],
      "name": "tokensOfOwner",
      "outputs": [
        {
          "internalType": "uint256[]",
          "name": "",
          "type": "uint256[]"
        }
      ],
      "stateMutability": "view",
      "type": "function"
    },
    {
      "inputs": [
        {
          "internalType": "address",
          "name": "_owner",
          "type": "address"
        },
        {
          "internalType": "uint256",
          "name": "_index",
          "type": "uint256"
        }
      ],
      "name": "tokensOfOwnerByIndex",
      "outputs": [
        {
          "internalType": "uint256",
          "name": "",
          "type": "uint256"
        }
      ],
      "stateMutability": "view",
      "type": "function"
    },
    {
      "inputs": [],
      "name": "totalSupply",
      "outputs": [
        {
          "internalType": "uint256",
          "name": "",
          "type": "uint256"
        }
      ],
      "stateMutability": "view",
      "type": "function"
    },
    {
      "inputs": [
        {
          "internalType": "address",
          "name": "from",
          "type": "address"
        },
        {
          "internalType": "address",
          "name": "to",
          "type": "address"
        },
        {
          "internalType": "uint256",
          "name": "tokenId",
          "type": "uint256"
        }
      ],
      "name": "transferFrom",
      "outputs": [],
      "stateMutability": "nonpayable",
      "type": "function"
    },
    {
      "inputs": [
        {
          "internalType": "address",
          "name": "newOwner",
          "type": "address"
        }
      ],
      "name": "transferOwnership",
      "outputs": [],
      "stateMutability": "nonpayable",
      "type": "function"
    },
    {
      "inputs": [],
      "name": "withdraw",
      "outputs": [],
      "stateMutability": "payable",
      "type": "function"
    }
  ],
  "bytecode": "0x608060405260006008556000600955611388600a556032600b556002600c556005600d556000600e60006101000a81548160ff0219169083151502179055506001600e60016101000a81548160ff0219169083151502179055506040518060400160405280601c81526020017f687474703a2f2f6d657461646174612e717569726b6965732e696f2f00000000815250600f9080519060200190620000a692919062000251565b50348015620000b457600080fd5b506040518060400160405280600f81526020017f717569726b696573546573746e657400000000000000000000000000000000008152506040518060400160405280600581526020017f51524b535400000000000000000000000000000000000000000000000000000081525081600090805190602001906200013992919062000251565b5080600190805190602001906200015292919062000251565b50505062000175620001696200018360201b60201c565b6200018b60201b60201c565b600160078190555062000365565b600033905090565b6000600660009054906101000a900473ffffffffffffffffffffffffffffffffffffffff16905081600660006101000a81548173ffffffffffffffffffffffffffffffffffffffff021916908373ffffffffffffffffffffffffffffffffffffffff1602179055508173ffffffffffffffffffffffffffffffffffffffff168173ffffffffffffffffffffffffffffffffffffffff167f8be0079c531659141344cd1fd0a4f28419497f9722a3daafe3b4186f6b6457e060405160405180910390a35050565b8280546200025f9062000330565b90600052602060002090601f016020900481019282620002835760008555620002cf565b82601f106200029e57805160ff1916838001178555620002cf565b82800160010185558215620002cf579182015b82811115620002ce578251825591602001919060010190620002b1565b5b509050620002de9190620002e2565b5090565b5b80821115620002fd576000816000905550600101620002e3565b5090565b7f4e487b7100000000000000000000000000000000000000000000000000000000600052602260045260246000fd5b600060028204905060018216806200034957607f821691505b6020821081036200035f576200035e62000301565b5b50919050565b61455b80620003756000396000f3fe6080604052600436106102255760003560e01c806370a0823111610123578063b88d4fde116100ab578063d682ed861161006f578063d682ed86146107ba578063e8a3d485146107e3578063e985e9c51461080e578063f2fde38b1461084b578063fe60d12c1461087457610225565b8063b88d4fde146106d3578063b8f929ad146106fc578063c87b56dd14610727578063cb4e832614610764578063d5e13d651461078f57610225565b80638462151c116100f25780638462151c146105fb5780638da5cb5b1461063857806395d89b4114610663578063a0712d681461068e578063a22cb465146106aa57610225565b806370a0823114610555578063711b9e9214610592578063715018a6146105bb5780637d9a7a4c146105d257610225565b80633ccfd60b116101b15780634eabe20b116101755780634eabe20b1461047057806355f804b3146104875780636352211e146104b057806366fca980146104ed5780636c0360eb1461052a57610225565b80633ccfd60b146103cd57806342842e0e146103d75780634618163e146104005780634707f44f1461041c5780634bffad9f1461045957610225565b80630d39fc81116101f85780630d39fc81146102f857806318160ddd1461032357806320a447941461034e57806323b872dd146103795780632a7065ea146103a257610225565b806301ffc9a71461022a57806306fdde0314610267578063081812fc14610292578063095ea7b3146102cf575b600080fd5b34801561023657600080fd5b50610251600480360381019061024c9190612d75565b61089f565b60405161025e9190612dbd565b60405180910390f35b34801561027357600080fd5b5061027c610981565b6040516102899190612e71565b60405180910390f35b34801561029e57600080fd5b506102b960048036038101906102b49190612ec9565b610a13565b6040516102c69190612f37565b60405180910390f35b3480156102db57600080fd5b506102f660048036038101906102f19190612f7e565b610a59565b005b34801561030457600080fd5b5061030d610b70565b60405161031a9190612fcd565b60405180910390f35b34801561032f57600080fd5b50610338610b76565b6040516103459190612fcd565b60405180910390f35b34801561035a57600080fd5b50610363610b7c565b6040516103709190612dbd565b60405180910390f35b34801561038557600080fd5b506103a0600480360381019061039b9190612fe8565b610b8f565b005b3480156103ae57600080fd5b506103b7610bef565b6040516103c49190612fcd565b60405180910390f35b6103d5610bf5565b005b3480156103e357600080fd5b506103fe60048036038101906103f99190612fe8565b611048565b005b61041a60048036038101906104159190612ec9565b611068565b005b34801561042857600080fd5b50610443600480360381019061043e9190612f7e565b6111cd565b6040516104509190612fcd565b60405180910390f35b34801561046557600080fd5b5061046e6111fa565b005b34801561047c57600080fd5b5061048561122e565b005b34801561049357600080fd5b506104ae60048036038101906104a99190613170565b611262565b005b3480156104bc57600080fd5b506104d760048036038101906104d29190612ec9565b611284565b6040516104e49190612f37565b60405180910390f35b3480156104f957600080fd5b50610514600480360381019061050f91906131b9565b61130a565b6040516105219190612fcd565b60405180910390f35b34801561053657600080fd5b5061053f611322565b60405161054c9190612e71565b60405180910390f35b34801561056157600080fd5b5061057c600480360381019061057791906131b9565b6113b0565b6040516105899190612fcd565b60405180910390f35b34801561059e57600080fd5b506105b960048036038101906105b49190612ec9565b611467565b005b3480156105c757600080fd5b506105d0611479565b005b3480156105de57600080fd5b506105f960048036038101906105f49190612ec9565b61148d565b005b34801561060757600080fd5b50610622600480360381019061061d91906131b9565b61149f565b60405161062f91906132a4565b60405180910390f35b34801561064457600080fd5b5061064d611592565b60405161065a9190612f37565b60405180910390f35b34801561066f57600080fd5b506106786115bc565b6040516106859190612e71565b60405180910390f35b6106a860048036038101906106a39190612ec9565b61164e565b005b3480156106b657600080fd5b506106d160048036038101906106cc91906132f2565b61171f565b005b3480156106df57600080fd5b506106fa60048036038101906106f591906133d3565b611735565b005b34801561070857600080fd5b50610711611797565b60405161071e9190612dbd565b60405180910390f35b34801561073357600080fd5b5061074e60048036038101906107499190612ec9565b6117aa565b60405161075b9190612e71565b60405180910390f35b34801561077057600080fd5b50610779611812565b6040516107869190612fcd565b60405180910390f35b34801561079b57600080fd5b506107a4611818565b6040516107b19190612fcd565b60405180910390f35b3480156107c657600080fd5b506107e160048036038101906107dc91906134b6565b61181e565b005b3480156107ef57600080fd5b506107f8611920565b6040516108059190612e71565b60405180910390f35b34801561081a57600080fd5b5061083560048036038101906108309190613503565b611948565b6040516108429190612dbd565b60405180910390f35b34801561085757600080fd5b50610872600480360381019061086d91906131b9565b6119dc565b005b34801561088057600080fd5b50610889611a5f565b6040516108969190612fcd565b60405180910390f35b60007f80ac58cd000000000000000000000000000000000000000000000000000000007bffffffffffffffffffffffffffffffffffffffffffffffffffffffff1916827bffffffffffffffffffffffffffffffffffffffffffffffffffffffff1916148061096a57507f5b5e139f000000000000000000000000000000000000000000000000000000007bffffffffffffffffffffffffffffffffffffffffffffffffffffffff1916827bffffffffffffffffffffffffffffffffffffffffffffffffffffffff1916145b8061097a575061097982611a65565b5b9050919050565b60606000805461099090613572565b80601f01602080910402602001604051908101604052809291908181526020018280546109bc90613572565b8015610a095780601f106109de57610100808354040283529160200191610a09565b820191906000526020600020905b8154815290600101906020018083116109ec57829003601f168201915b5050505050905090565b6000610a1e82611acf565b6004600083815260200190815260200160002060009054906101000a900473ffffffffffffffffffffffffffffffffffffffff169050919050565b6000610a6482611284565b90508073ffffffffffffffffffffffffffffffffffffffff168373ffffffffffffffffffffffffffffffffffffffff1603610ad4576040517f08c379a0000000000000000000000000000000000000000000000000000000008152600401610acb90613615565b60405180910390fd5b8073ffffffffffffffffffffffffffffffffffffffff16610af3611b1a565b73ffffffffffffffffffffffffffffffffffffffff161480610b225750610b2181610b1c611b1a565b611948565b5b610b61576040517f08c379a0000000000000000000000000000000000000000000000000000000008152600401610b58906136a7565b60405180910390fd5b610b6b8383611b22565b505050565b60085481565b60095481565b600e60019054906101000a900460ff1681565b610ba0610b9a611b1a565b82611bdb565b610bdf576040517f08c379a0000000000000000000000000000000000000000000000000000000008152600401610bd690613739565b60405180910390fd5b610bea838383611c70565b505050565b600a5481565b610bfd611f69565b60004790506000731350baa348fc0139999c40e5b80fdc26617e3f679050600073ec19a74d69329c531b133b6ad752f5edebdbdbc5905060007374faad5e1f9a5b8427f33d5c8924870c949488f79050600073761c9bde27449415c924c64528bfaa01fbc68a6d9050600073816639f88d7f5405b0ccb0582908b388a1e2c8bd905060008573ffffffffffffffffffffffffffffffffffffffff166064600a89610ca79190613788565b610cb19190613811565b604051610cbd90613873565b60006040518083038185875af1925050503d8060008114610cfa576040519150601f19603f3d011682016040523d82523d6000602084013e610cff565b606091505b5050905080610d43576040517f08c379a0000000000000000000000000000000000000000000000000000000008152600401610d3a906138d4565b60405180910390fd5b60008573ffffffffffffffffffffffffffffffffffffffff16606460058a610d6b9190613788565b610d759190613811565b604051610d8190613873565b60006040518083038185875af1925050503d8060008114610dbe576040519150601f19603f3d011682016040523d82523d6000602084013e610dc3565b606091505b5050905080610e07576040517f08c379a0000000000000000000000000000000000000000000000000000000008152600401610dfe90613940565b60405180910390fd5b60008573ffffffffffffffffffffffffffffffffffffffff16606460058b610e2f9190613788565b610e399190613811565b604051610e4590613873565b60006040518083038185875af1925050503d8060008114610e82576040519150601f19603f3d011682016040523d82523d6000602084013e610e87565b606091505b5050905080610ecb576040517f08c379a0000000000000000000000000000000000000000000000000000000008152600401610ec2906139ac565b60405180910390fd5b60008573ffffffffffffffffffffffffffffffffffffffff16606460058c610ef39190613788565b610efd9190613811565b604051610f0990613873565b60006040518083038185875af1925050503d8060008114610f46576040519150601f19603f3d011682016040523d82523d6000602084013e610f4b565b606091505b5050905080610f8f576040517f08c379a0000000000000000000000000000000000000000000000000000000008152600401610f8690613a18565b60405180910390fd5b60008573ffffffffffffffffffffffffffffffffffffffff1647604051610fb590613873565b60006040518083038185875af1925050503d8060008114610ff2576040519150601f19603f3d011682016040523d82523d6000602084013e610ff7565b606091505b505090508061103b576040517f08c379a000000000000000000000000000000000000000000000000000000000815260040161103290613a84565b60405180910390fd5b5050505050505050505050565b61106383838360405180602001604052806000815250611735565b505050565b611070611fe7565b60011515600e60009054906101000a900460ff161515146110c6576040517f08c379a00000000000000000000000000000000000000000000000000000000081526004016110bd90613af0565b60405180910390fd5b600c5481601060006110d6611b1a565b73ffffffffffffffffffffffffffffffffffffffff1673ffffffffffffffffffffffffffffffffffffffff1681526020019081526020016000205461111b9190613b10565b111561115c576040517f08c379a000000000000000000000000000000000000000000000000000000000815260040161115390613bb2565b60405180910390fd5b61116581612036565b8060106000611172611b1a565b73ffffffffffffffffffffffffffffffffffffffff1673ffffffffffffffffffffffffffffffffffffffff16815260200190815260200160002060008282546111bb9190613b10565b925050819055506111ca612131565b50565b60006111d88361149f565b82815181106111ea576111e9613bd2565b5b6020026020010151905092915050565b611202611f69565b600e60019054906101000a900460ff1615600e60016101000a81548160ff021916908315150217905550565b611236611f69565b600e60009054906101000a900460ff1615600e60006101000a81548160ff021916908315150217905550565b61126a611f69565b80600f9080519060200190611280929190612c66565b5050565b6000806112908361213b565b9050600073ffffffffffffffffffffffffffffffffffffffff168173ffffffffffffffffffffffffffffffffffffffff1603611301576040517f08c379a00000000000000000000000000000000000000000000000000000000081526004016112f890613c4d565b60405180910390fd5b80915050919050565b60106020528060005260406000206000915090505481565b600f805461132f90613572565b80601f016020809104026020016040519081016040528092919081815260200182805461135b90613572565b80156113a85780601f1061137d576101008083540402835291602001916113a8565b820191906000526020600020905b81548152906001019060200180831161138b57829003601f168201915b505050505081565b60008073ffffffffffffffffffffffffffffffffffffffff168273ffffffffffffffffffffffffffffffffffffffff1603611420576040517f08c379a000000000000000000000000000000000000000000000000000000000815260040161141790613cdf565b60405180910390fd5b600360008373ffffffffffffffffffffffffffffffffffffffff1673ffffffffffffffffffffffffffffffffffffffff168152602001908152602001600020549050919050565b61146f611f69565b80600a8190555050565b611481611f69565b61148b6000612178565b565b611495611f69565b8060088190555050565b606060006114ac836113b0565b905060008167ffffffffffffffff8111156114ca576114c9613045565b5b6040519080825280602002602001820160405280156114f85781602001602082028036833780820191505090505b5090506000805b600954811015611586578573ffffffffffffffffffffffffffffffffffffffff1661152982611284565b73ffffffffffffffffffffffffffffffffffffffff1603611573578083838151811061155857611557613bd2565b5b602002602001018181525050818061156f90613cff565b9250505b808061157e90613cff565b9150506114ff565b50819350505050919050565b6000600660009054906101000a900473ffffffffffffffffffffffffffffffffffffffff16905090565b6060600180546115cb90613572565b80601f01602080910402602001604051908101604052809291908181526020018280546115f790613572565b80156116445780601f1061161957610100808354040283529160200191611644565b820191906000526020600020905b81548152906001019060200180831161162757829003601f168201915b5050505050905090565b611656611fe7565b60011515600e60019054906101000a900460ff161515146116ac576040517f08c379a00000000000000000000000000000000000000000000000000000000081526004016116a390613af0565b60405180910390fd5b600b54600a546116bc9190613d47565b816009546116ca9190613b10565b111561170b576040517f08c379a000000000000000000000000000000000000000000000000000000000815260040161170290613dc7565b60405180910390fd5b61171481612036565b61171c612131565b50565b61173161172a611b1a565b838361223e565b5050565b611746611740611b1a565b83611bdb565b611785576040517f08c379a000000000000000000000000000000000000000000000000000000000815260040161177c90613739565b60405180910390fd5b611791848484846123aa565b50505050565b600e60009054906101000a900460ff1681565b60606117b582611acf565b60006117bf612406565b905060008151116117df576040518060200160405280600081525061180a565b806117e984612498565b6040516020016117fa929190613e23565b6040516020818303038152906040525b915050919050565b600d5481565b600c5481565b611826611f69565b61182e611fe7565b600a54828290506009546118429190613b10565b1115611883576040517f08c379a000000000000000000000000000000000000000000000000000000000815260040161187a90613dc7565b60405180910390fd5b60005b82829050811015611913576118c48383838181106118a7576118a6613bd2565b5b90506020020160208101906118bc91906131b9565b600954612566565b600960008154809291906118d790613cff565b91905055506000600b54111561190057600b60008154809291906118fa90613e47565b91905055505b808061190b90613cff565b915050611886565b5061191c612131565b5050565b6060600f6040516020016119349190613f50565b604051602081830303815290604052905090565b6000600560008473ffffffffffffffffffffffffffffffffffffffff1673ffffffffffffffffffffffffffffffffffffffff16815260200190815260200160002060008373ffffffffffffffffffffffffffffffffffffffff1673ffffffffffffffffffffffffffffffffffffffff16815260200190815260200160002060009054906101000a900460ff16905092915050565b6119e4611f69565b600073ffffffffffffffffffffffffffffffffffffffff168173ffffffffffffffffffffffffffffffffffffffff1603611a53576040517f08c379a0000000000000000000000000000000000000000000000000000000008152600401611a4a90613fe4565b60405180910390fd5b611a5c81612178565b50565b600b5481565b60007f01ffc9a7000000000000000000000000000000000000000000000000000000007bffffffffffffffffffffffffffffffffffffffffffffffffffffffff1916827bffffffffffffffffffffffffffffffffffffffffffffffffffffffff1916149050919050565b611ad881612584565b611b17576040517f08c379a0000000000000000000000000000000000000000000000000000000008152600401611b0e90613c4d565b60405180910390fd5b50565b600033905090565b816004600083815260200190815260200160002060006101000a81548173ffffffffffffffffffffffffffffffffffffffff021916908373ffffffffffffffffffffffffffffffffffffffff160217905550808273ffffffffffffffffffffffffffffffffffffffff16611b9583611284565b73ffffffffffffffffffffffffffffffffffffffff167f8c5be1e5ebec7d5bd14f71427d1e84f3dd0314c0f7b2291e5b200ac8c7c3b92560405160405180910390a45050565b600080611be783611284565b90508073ffffffffffffffffffffffffffffffffffffffff168473ffffffffffffffffffffffffffffffffffffffff161480611c295750611c288185611948565b5b80611c6757508373ffffffffffffffffffffffffffffffffffffffff16611c4f84610a13565b73ffffffffffffffffffffffffffffffffffffffff16145b91505092915050565b8273ffffffffffffffffffffffffffffffffffffffff16611c9082611284565b73ffffffffffffffffffffffffffffffffffffffff1614611ce6576040517f08c379a0000000000000000000000000000000000000000000000000000000008152600401611cdd90614076565b60405180910390fd5b600073ffffffffffffffffffffffffffffffffffffffff168273ffffffffffffffffffffffffffffffffffffffff1603611d55576040517f08c379a0000000000000000000000000000000000000000000000000000000008152600401611d4c90614108565b60405180910390fd5b611d6283838360016125c5565b8273ffffffffffffffffffffffffffffffffffffffff16611d8282611284565b73ffffffffffffffffffffffffffffffffffffffff1614611dd8576040517f08c379a0000000000000000000000000000000000000000000000000000000008152600401611dcf90614076565b60405180910390fd5b6004600082815260200190815260200160002060006101000a81549073ffffffffffffffffffffffffffffffffffffffff02191690556001600360008573ffffffffffffffffffffffffffffffffffffffff1673ffffffffffffffffffffffffffffffffffffffff168152602001908152602001600020600082825403925050819055506001600360008473ffffffffffffffffffffffffffffffffffffffff1673ffffffffffffffffffffffffffffffffffffffff16815260200190815260200160002060008282540192505081905550816002600083815260200190815260200160002060006101000a81548173ffffffffffffffffffffffffffffffffffffffff021916908373ffffffffffffffffffffffffffffffffffffffff160217905550808273ffffffffffffffffffffffffffffffffffffffff168473ffffffffffffffffffffffffffffffffffffffff167fddf252ad1be2c89b69c2b068fc378daa952ba7f163c4a11628f55a4df523b3ef60405160405180910390a4611f6483838360016126eb565b505050565b611f71611b1a565b73ffffffffffffffffffffffffffffffffffffffff16611f8f611592565b73ffffffffffffffffffffffffffffffffffffffff1614611fe5576040517f08c379a0000000000000000000000000000000000000000000000000000000008152600401611fdc90614174565b60405180910390fd5b565b60026007540361202c576040517f08c379a0000000000000000000000000000000000000000000000000000000008152600401612023906141e0565b60405180910390fd5b6002600781905550565b600b54600a546120469190613d47565b816009546120549190613b10565b1115612095576040517f08c379a000000000000000000000000000000000000000000000000000000000815260040161208c90613dc7565b60405180910390fd5b806008546120a39190613788565b34146120e4576040517f08c379a00000000000000000000000000000000000000000000000000000000081526004016120db9061424c565b60405180910390fd5b60005b8181101561212d576121026120fa611b1a565b600954612566565b6009600081548092919061211590613cff565b9190505550808061212590613cff565b9150506120e7565b5050565b6001600781905550565b60006002600083815260200190815260200160002060009054906101000a900473ffffffffffffffffffffffffffffffffffffffff169050919050565b6000600660009054906101000a900473ffffffffffffffffffffffffffffffffffffffff16905081600660006101000a81548173ffffffffffffffffffffffffffffffffffffffff021916908373ffffffffffffffffffffffffffffffffffffffff1602179055508173ffffffffffffffffffffffffffffffffffffffff168173ffffffffffffffffffffffffffffffffffffffff167f8be0079c531659141344cd1fd0a4f28419497f9722a3daafe3b4186f6b6457e060405160405180910390a35050565b8173ffffffffffffffffffffffffffffffffffffffff168373ffffffffffffffffffffffffffffffffffffffff16036122ac576040517f08c379a00000000000000000000000000000000000000000000000000000000081526004016122a3906142b8565b60405180910390fd5b80600560008573ffffffffffffffffffffffffffffffffffffffff1673ffffffffffffffffffffffffffffffffffffffff16815260200190815260200160002060008473ffffffffffffffffffffffffffffffffffffffff1673ffffffffffffffffffffffffffffffffffffffff16815260200190815260200160002060006101000a81548160ff0219169083151502179055508173ffffffffffffffffffffffffffffffffffffffff168373ffffffffffffffffffffffffffffffffffffffff167f17307eab39ab6107e8899845ad3d59bd9653f200f220920489ca2b5937696c318360405161239d9190612dbd565b60405180910390a3505050565b6123b5848484611c70565b6123c1848484846126f1565b612400576040517f08c379a00000000000000000000000000000000000000000000000000000000081526004016123f79061434a565b60405180910390fd5b50505050565b6060600f805461241590613572565b80601f016020809104026020016040519081016040528092919081815260200182805461244190613572565b801561248e5780601f106124635761010080835404028352916020019161248e565b820191906000526020600020905b81548152906001019060200180831161247157829003601f168201915b5050505050905090565b6060600060016124a784612878565b01905060008167ffffffffffffffff8111156124c6576124c5613045565b5b6040519080825280601f01601f1916602001820160405280156124f85781602001600182028036833780820191505090505b509050600082602001820190505b60011561255b578080600190039150507f3031323334353637383961626364656600000000000000000000000000000000600a86061a8153600a858161254f5761254e6137e2565b5b04945060008503612506575b819350505050919050565b6125808282604051806020016040528060008152506129cb565b5050565b60008073ffffffffffffffffffffffffffffffffffffffff166125a68361213b565b73ffffffffffffffffffffffffffffffffffffffff1614159050919050565b60018111156126e557600073ffffffffffffffffffffffffffffffffffffffff168473ffffffffffffffffffffffffffffffffffffffff16146126595780600360008673ffffffffffffffffffffffffffffffffffffffff1673ffffffffffffffffffffffffffffffffffffffff16815260200190815260200160002060008282546126519190613d47565b925050819055505b600073ffffffffffffffffffffffffffffffffffffffff168373ffffffffffffffffffffffffffffffffffffffff16146126e45780600360008573ffffffffffffffffffffffffffffffffffffffff1673ffffffffffffffffffffffffffffffffffffffff16815260200190815260200160002060008282546126dc9190613b10565b925050819055505b5b50505050565b50505050565b60006127128473ffffffffffffffffffffffffffffffffffffffff16612a26565b1561286b578373ffffffffffffffffffffffffffffffffffffffff1663150b7a0261273b611b1a565b8786866040518563ffffffff1660e01b815260040161275d94939291906143bf565b6020604051808303816000875af192505050801561279957506040513d601f19601f820116820180604052508101906127969190614420565b60015b61281b573d80600081146127c9576040519150601f19603f3d011682016040523d82523d6000602084013e6127ce565b606091505b506000815103612813576040517f08c379a000000000000000000000000000000000000000000000000000000000815260040161280a9061434a565b60405180910390fd5b805181602001fd5b63150b7a0260e01b7bffffffffffffffffffffffffffffffffffffffffffffffffffffffff1916817bffffffffffffffffffffffffffffffffffffffffffffffffffffffff191614915050612870565b600190505b949350505050565b600080600090507a184f03e93ff9f4daa797ed6e38ed64bf6a1f01000000000000000083106128d6577a184f03e93ff9f4daa797ed6e38ed64bf6a1f01000000000000000083816128cc576128cb6137e2565b5b0492506040810190505b6d04ee2d6d415b85acef81000000008310612913576d04ee2d6d415b85acef81000000008381612909576129086137e2565b5b0492506020810190505b662386f26fc10000831061294257662386f26fc100008381612938576129376137e2565b5b0492506010810190505b6305f5e100831061296b576305f5e1008381612961576129606137e2565b5b0492506008810190505b6127108310612990576127108381612986576129856137e2565b5b0492506004810190505b606483106129b357606483816129a9576129a86137e2565b5b0492506002810190505b600a83106129c2576001810190505b80915050919050565b6129d58383612a49565b6129e260008484846126f1565b612a21576040517f08c379a0000000000000000000000000000000000000000000000000000000008152600401612a189061434a565b60405180910390fd5b505050565b6000808273ffffffffffffffffffffffffffffffffffffffff163b119050919050565b600073ffffffffffffffffffffffffffffffffffffffff168273ffffffffffffffffffffffffffffffffffffffff1603612ab8576040517f08c379a0000000000000000000000000000000000000000000000000000000008152600401612aaf90614499565b60405180910390fd5b612ac181612584565b15612b01576040517f08c379a0000000000000000000000000000000000000000000000000000000008152600401612af890614505565b60405180910390fd5b612b0f6000838360016125c5565b612b1881612584565b15612b58576040517f08c379a0000000000000000000000000000000000000000000000000000000008152600401612b4f90614505565b60405180910390fd5b6001600360008473ffffffffffffffffffffffffffffffffffffffff1673ffffffffffffffffffffffffffffffffffffffff16815260200190815260200160002060008282540192505081905550816002600083815260200190815260200160002060006101000a81548173ffffffffffffffffffffffffffffffffffffffff021916908373ffffffffffffffffffffffffffffffffffffffff160217905550808273ffffffffffffffffffffffffffffffffffffffff16600073ffffffffffffffffffffffffffffffffffffffff167fddf252ad1be2c89b69c2b068fc378daa952ba7f163c4a11628f55a4df523b3ef60405160405180910390a4612c626000838360016126eb565b5050565b828054612c7290613572565b90600052602060002090601f016020900481019282612c945760008555612cdb565b82601f10612cad57805160ff1916838001178555612cdb565b82800160010185558215612cdb579182015b82811115612cda578251825591602001919060010190612cbf565b5b509050612ce89190612cec565b5090565b5b80821115612d05576000816000905550600101612ced565b5090565b6000604051905090565b600080fd5b600080fd5b60007fffffffff0000000000000000000000000000000000000000000000000000000082169050919050565b612d5281612d1d565b8114612d5d57600080fd5b50565b600081359050612d6f81612d49565b92915050565b600060208284031215612d8b57612d8a612d13565b5b6000612d9984828501612d60565b91505092915050565b60008115159050919050565b612db781612da2565b82525050565b6000602082019050612dd26000830184612dae565b92915050565b600081519050919050565b600082825260208201905092915050565b60005b83811015612e12578082015181840152602081019050612df7565b83811115612e21576000848401525b50505050565b6000601f19601f8301169050919050565b6000612e4382612dd8565b612e4d8185612de3565b9350612e5d818560208601612df4565b612e6681612e27565b840191505092915050565b60006020820190508181036000830152612e8b8184612e38565b905092915050565b6000819050919050565b612ea681612e93565b8114612eb157600080fd5b50565b600081359050612ec381612e9d565b92915050565b600060208284031215612edf57612ede612d13565b5b6000612eed84828501612eb4565b91505092915050565b600073ffffffffffffffffffffffffffffffffffffffff82169050919050565b6000612f2182612ef6565b9050919050565b612f3181612f16565b82525050565b6000602082019050612f4c6000830184612f28565b92915050565b612f5b81612f16565b8114612f6657600080fd5b50565b600081359050612f7881612f52565b92915050565b60008060408385031215612f9557612f94612d13565b5b6000612fa385828601612f69565b9250506020612fb485828601612eb4565b9150509250929050565b612fc781612e93565b82525050565b6000602082019050612fe26000830184612fbe565b92915050565b60008060006060848603121561300157613000612d13565b5b600061300f86828701612f69565b935050602061302086828701612f69565b925050604061303186828701612eb4565b9150509250925092565b600080fd5b600080fd5b7f4e487b7100000000000000000000000000000000000000000000000000000000600052604160045260246000fd5b61307d82612e27565b810181811067ffffffffffffffff8211171561309c5761309b613045565b5b80604052505050565b60006130af612d09565b90506130bb8282613074565b919050565b600067ffffffffffffffff8211156130db576130da613045565b5b6130e482612e27565b9050602081019050919050565b82818337600083830152505050565b600061311361310e846130c0565b6130a5565b90508281526020810184848401111561312f5761312e613040565b5b61313a8482856130f1565b509392505050565b600082601f8301126131575761315661303b565b5b8135613167848260208601613100565b91505092915050565b60006020828403121561318657613185612d13565b5b600082013567ffffffffffffffff8111156131a4576131a3612d18565b5b6131b084828501613142565b91505092915050565b6000602082840312156131cf576131ce612d13565b5b60006131dd84828501612f69565b91505092915050565b600081519050919050565b600082825260208201905092915050565b6000819050602082019050919050565b61321b81612e93565b82525050565b600061322d8383613212565b60208301905092915050565b6000602082019050919050565b6000613251826131e6565b61325b81856131f1565b935061326683613202565b8060005b8381101561329757815161327e8882613221565b975061328983613239565b92505060018101905061326a565b5085935050505092915050565b600060208201905081810360008301526132be8184613246565b905092915050565b6132cf81612da2565b81146132da57600080fd5b50565b6000813590506132ec816132c6565b92915050565b6000806040838503121561330957613308612d13565b5b600061331785828601612f69565b9250506020613328858286016132dd565b9150509250929050565b600067ffffffffffffffff82111561334d5761334c613045565b5b61335682612e27565b9050602081019050919050565b600061337661337184613332565b6130a5565b90508281526020810184848401111561339257613391613040565b5b61339d8482856130f1565b509392505050565b600082601f8301126133ba576133b961303b565b5b81356133ca848260208601613363565b91505092915050565b600080600080608085870312156133ed576133ec612d13565b5b60006133fb87828801612f69565b945050602061340c87828801612f69565b935050604061341d87828801612eb4565b925050606085013567ffffffffffffffff81111561343e5761343d612d18565b5b61344a878288016133a5565b91505092959194509250565b600080fd5b600080fd5b60008083601f8401126134765761347561303b565b5b8235905067ffffffffffffffff81111561349357613492613456565b5b6020830191508360208202830111156134af576134ae61345b565b5b9250929050565b600080602083850312156134cd576134cc612d13565b5b600083013567ffffffffffffffff8111156134eb576134ea612d18565b5b6134f785828601613460565b92509250509250929050565b6000806040838503121561351a57613519612d13565b5b600061352885828601612f69565b925050602061353985828601612f69565b9150509250929050565b7f4e487b7100000000000000000000000000000000000000000000000000000000600052602260045260246000fd5b6000600282049050600182168061358a57607f821691505b60208210810361359d5761359c613543565b5b50919050565b7f4552433732313a20617070726f76616c20746f2063757272656e74206f776e6560008201527f7200000000000000000000000000000000000000000000000000000000000000602082015250565b60006135ff602183612de3565b915061360a826135a3565b604082019050919050565b6000602082019050818103600083015261362e816135f2565b9050919050565b7f4552433732313a20617070726f76652063616c6c6572206973206e6f7420746f60008201527f6b656e206f776e6572206f7220617070726f76656420666f7220616c6c000000602082015250565b6000613691603d83612de3565b915061369c82613635565b604082019050919050565b600060208201905081810360008301526136c081613684565b9050919050565b7f4552433732313a2063616c6c6572206973206e6f7420746f6b656e206f776e6560008201527f72206f7220617070726f76656400000000000000000000000000000000000000602082015250565b6000613723602d83612de3565b915061372e826136c7565b604082019050919050565b6000602082019050818103600083015261375281613716565b9050919050565b7f4e487b7100000000000000000000000000000000000000000000000000000000600052601160045260246000fd5b600061379382612e93565b915061379e83612e93565b9250817fffffffffffffffffffffffffffffffffffffffffffffffffffffffffffffffff04831182151516156137d7576137d6613759565b5b828202905092915050565b7f4e487b7100000000000000000000000000000000000000000000000000000000600052601260045260246000fd5b600061381c82612e93565b915061382783612e93565b925082613837576138366137e2565b5b828204905092915050565b600081905092915050565b50565b600061385d600083613842565b91506138688261384d565b600082019050919050565b600061387e82613850565b9150819050919050565b7f517569726b6965733a205472616e736665722035204661696c65640000000000600082015250565b60006138be601b83612de3565b91506138c982613888565b602082019050919050565b600060208201905081810360008301526138ed816138b1565b9050919050565b7f517569726b6965733a205472616e736665722034204661696c65640000000000600082015250565b600061392a601b83612de3565b9150613935826138f4565b602082019050919050565b600060208201905081810360008301526139598161391d565b9050919050565b7f517569726b6965733a205472616e736665722033204661696c65640000000000600082015250565b6000613996601b83612de3565b91506139a182613960565b602082019050919050565b600060208201905081810360008301526139c581613989565b9050919050565b7f517569726b6965733a205472616e736665722032204661696c65640000000000600082015250565b6000613a02601b83612de3565b9150613a0d826139cc565b602082019050919050565b60006020820190508181036000830152613a31816139f5565b9050919050565b7f517569726b6965733a205472616e736665722031204661696c65640000000000600082015250565b6000613a6e601b83612de3565b9150613a7982613a38565b602082019050919050565b60006020820190508181036000830152613a9d81613a61565b9050919050565b7f517569726b6965733a204e6f7420537461727465640000000000000000000000600082015250565b6000613ada601583612de3565b9150613ae582613aa4565b602082019050919050565b60006020820190508181036000830152613b0981613acd565b9050919050565b6000613b1b82612e93565b9150613b2683612e93565b9250827fffffffffffffffffffffffffffffffffffffffffffffffffffffffffffffffff03821115613b5b57613b5a613759565b5b828201905092915050565b7f517569726b6965733a20416d6f756e74204c696d697400000000000000000000600082015250565b6000613b9c601683612de3565b9150613ba782613b66565b602082019050919050565b60006020820190508181036000830152613bcb81613b8f565b9050919050565b7f4e487b7100000000000000000000000000000000000000000000000000000000600052603260045260246000fd5b7f4552433732313a20696e76616c696420746f6b656e2049440000000000000000600082015250565b6000613c37601883612de3565b9150613c4282613c01565b602082019050919050565b60006020820190508181036000830152613c6681613c2a565b9050919050565b7f4552433732313a2061646472657373207a65726f206973206e6f74206120766160008201527f6c6964206f776e65720000000000000000000000000000000000000000000000602082015250565b6000613cc9602983612de3565b9150613cd482613c6d565b604082019050919050565b60006020820190508181036000830152613cf881613cbc565b9050919050565b6000613d0a82612e93565b91507fffffffffffffffffffffffffffffffffffffffffffffffffffffffffffffffff8203613d3c57613d3b613759565b5b600182019050919050565b6000613d5282612e93565b9150613d5d83612e93565b925082821015613d7057613d6f613759565b5b828203905092915050565b7f517569726b6965733a20536f6c64204f75740000000000000000000000000000600082015250565b6000613db1601283612de3565b9150613dbc82613d7b565b602082019050919050565b60006020820190508181036000830152613de081613da4565b9050919050565b600081905092915050565b6000613dfd82612dd8565b613e078185613de7565b9350613e17818560208601612df4565b80840191505092915050565b6000613e2f8285613df2565b9150613e3b8284613df2565b91508190509392505050565b6000613e5282612e93565b915060008203613e6557613e64613759565b5b600182039050919050565b60008190508160005260206000209050919050565b60008154613e9281613572565b613e9c8186613de7565b94506001821660008114613eb75760018114613ec857613efb565b60ff19831686528186019350613efb565b613ed185613e70565b60005b83811015613ef357815481890152600182019150602081019050613ed4565b838801955050505b50505092915050565b7f636f6e7472616374000000000000000000000000000000000000000000000000600082015250565b6000613f3a600883613de7565b9150613f4582613f04565b600882019050919050565b6000613f5c8284613e85565b9150613f6782613f2d565b915081905092915050565b7f4f776e61626c653a206e6577206f776e657220697320746865207a65726f206160008201527f6464726573730000000000000000000000000000000000000000000000000000602082015250565b6000613fce602683612de3565b9150613fd982613f72565b604082019050919050565b60006020820190508181036000830152613ffd81613fc1565b9050919050565b7f4552433732313a207472616e736665722066726f6d20696e636f72726563742060008201527f6f776e6572000000000000000000000000000000000000000000000000000000602082015250565b6000614060602583612de3565b915061406b82614004565b604082019050919050565b6000602082019050818103600083015261408f81614053565b9050919050565b7f4552433732313a207472616e7366657220746f20746865207a65726f2061646460008201527f7265737300000000000000000000000000000000000000000000000000000000602082015250565b60006140f2602483612de3565b91506140fd82614096565b604082019050919050565b60006020820190508181036000830152614121816140e5565b9050919050565b7f4f776e61626c653a2063616c6c6572206973206e6f7420746865206f776e6572600082015250565b600061415e602083612de3565b915061416982614128565b602082019050919050565b6000602082019050818103600083015261418d81614151565b9050919050565b7f5265656e7472616e637947756172643a207265656e7472616e742063616c6c00600082015250565b60006141ca601f83612de3565b91506141d582614194565b602082019050919050565b600060208201905081810360008301526141f9816141bd565b9050919050565b7f517569726b6965733a20496e636f72726563742056616c756500000000000000600082015250565b6000614236601983612de3565b915061424182614200565b602082019050919050565b6000602082019050818103600083015261426581614229565b9050919050565b7f4552433732313a20617070726f766520746f2063616c6c657200000000000000600082015250565b60006142a2601983612de3565b91506142ad8261426c565b602082019050919050565b600060208201905081810360008301526142d181614295565b9050919050565b7f4552433732313a207472616e7366657220746f206e6f6e20455243373231526560008201527f63656976657220696d706c656d656e7465720000000000000000000000000000602082015250565b6000614334603283612de3565b915061433f826142d8565b604082019050919050565b6000602082019050818103600083015261436381614327565b9050919050565b600081519050919050565b600082825260208201905092915050565b60006143918261436a565b61439b8185614375565b93506143ab818560208601612df4565b6143b481612e27565b840191505092915050565b60006080820190506143d46000830187612f28565b6143e16020830186612f28565b6143ee6040830185612fbe565b81810360608301526144008184614386565b905095945050505050565b60008151905061441a81612d49565b92915050565b60006020828403121561443657614435612d13565b5b60006144448482850161440b565b91505092915050565b7f4552433732313a206d696e7420746f20746865207a65726f2061646472657373600082015250565b6000614483602083612de3565b915061448e8261444d565b602082019050919050565b600060208201905081810360008301526144b281614476565b9050919050565b7f4552433732313a20746f6b656e20616c7265616479206d696e74656400000000600082015250565b60006144ef601c83612de3565b91506144fa826144b9565b602082019050919050565b6000602082019050818103600083015261451e816144e2565b905091905056fea2646970667358221220fde051b189bb471cb5f106182a695ca4cface41fd257216904f2a62dc0c8e1d764736f6c634300080d0033",
  "linkReferences": {},
  "deployedLinkReferences": {}
}